:020000040800F2
:1000000000000220293E0008390600083B060008CF
:100010003D0600083F0600084106000800000000F9
:10002000000000000000000000000000430600087F
:1000300045060008000000004706000849060008C1
:10004000793E0008793E0008793E0008793E0008B4
:10005000793E0008793E0008793E0008793E0008A4
:10006000793E0008793E0008793E0008793E000894
:10007000793E0008793E0008793E0008793E000884
:10008000793E0008793E0008793E0008793E000874
:10009000793E000851060008793E0008793E0008C4
:1000A000793E0008793E0008793E0008793E000854
:1000B000793E0008793E0008793E0008793E000844
:1000C000793E0008793E0008793E0008793E000834
:1000D000793E0008793E0008793E0008793E000824
:1000E000793E0008793E0008793E0008793E000814
:1000F000793E0008793E0008793E0008793E000804
:10010000793E0008793E0008793E0008793E0008F3
:10011000793E0008793E0008793E0008793E0008E3
:1001200061060008793E0008793E0008793E000823
:10013000793E0008793E0008793E0008793E0008C3
:10014000793E0008793E0008793E0008793E0008B3
:10015000793E0008793E0008793E0008793E0008A3
:10016000793E0008793E0008793E0008793E000893
:10017000793E0008793E0008793E00080000000042
:08018000793E0008793E0008F9
:10019000034613F8012B002AFBD1181A01387047C7
:1001A00001F0FF01102A2BDB10F0070F08D010F828
:1001B000013B013A8B422DD010F0070F42B3F6D12C
:1001C000F0B441EA012141EA014122F007047FF045
:1001D00000070023F0E80256083C85EA010586EA9C
:1001E000010685FA47F5A3FA87F586FA47F6A5FAD8
:1001F00087F68EB9EED1F0BC01F0FF0102F00702E4
:1002000032B110F8013B013A83EA010313B1F8D18E
:100210000020704701387047002D06BF354603386F
:10022000073815F0010F07D1013015F4807F02BFA8
:10023000013015F4C03F0130F0BC0138704700BFF9
:1002400053B94AB9002908BF00281CBF4FF0FF313D
:100250004FF0FF3000F00CB8ADF1080C6DE904CEA2
:1002600004F0D2FADDF804E0DDE9022304B07047BF
:10027000704700BF0348044B834202D0034B03B1D5
:10028000184770475C0000205C0000200000000060
:100290000548064B1B1AD90F01EBA301491002D0E8
:1002A000034B03B1184770475C0000205C0000203E
:1002B0000000000010B5064C237843B9FFF7DAFFC1
:1002C000044B13B10448AFF300800123237010BD29
:1002D0005C00002000000000284B000808B5054B1A
:1002E0001BB105490548AFF30080BDE80840FFF7A2
:1002F000CFBF00BF0000000060000020284B0008B6
:1003000072B6FEE710B594B008AC3022002120464A
:1003100003F094FE0023039304930593069307933D
:1003200001931F4A116C41F080511164126C02F06C
:1003300080520192019A02931A4B1A6842F4804249
:100340001A601B6803F480430293029B0123089305
:100350004FF48033099302220E924FF480030F93DF
:1003600004231093A821119112921393204600F0B8
:10037000EDFC88B90F2303930223049305904FF4F7
:10038000A05306934FF480530793052103A800F070
:1003900049FF18B914B010BDFFF7B2FFFFF7B0FF67
:1003A000003802400070004000B589B001F080FBC9
:1003B000FFF7A8FF00F058F803F0C4FB00F0D0F8F6
:1003C00001F0E6FB02F06EF901F014FD01F012FC01
:1003D00001F06CFD02F080F902F088FB02F010FCE5
:1003E00003F0F0FB1A4B93E8030008AB03E90300AA
:1003F000002304930593174803F0C8FB03F0FEFCA9
:100400003C21154802F074F83C21144802F070F8C1
:1004100003F05CFC02A803F072FC684603F08EFC5B
:10042000BDF90C30BDF90A20BDF908100C4803F0E5
:10043000ADFBBDF90430BDF90220BDF9001009483B
:1004400003F0A4FB4FF47A7001F05EFBE2E700BF1B
:10045000884B0008404B000838010020F0000020C5
:10046000544B00086C4B00082DE9F0438BB005ADF0
:100470000024059406940794089409940094344B3E
:100480001A6B42F080021A631A6B02F0800200922B
:10049000009A01941A6B42F001021A631A6B02F07F
:1004A00001020192019A02941A6B42F008021A6347
:1004B0001A6B02F008020292029A03941A6B42F03D
:1004C00004021A631A6B02F004020392039A049462
:1004D0001A6B42F002021A631B6B03F002030493CF
:1004E000049BDFF8749022464FF46071484601F097
:1004F00073F8DFF8688022464FF48071404601F0BF
:100500006BF8144F01222821384601F065F84FF4AA
:100510006073059301260696079408942946484679
:1005200000F056FF4FF480730593069607940894E5
:100530002946404600F04CFF282305930696079471
:1005400008942946384600F043FF0BB0BDE8F0831D
:10055000003802400004024000080240000002404F
:1005600008B50D480D4B03600623436000238360EC
:10057000C3604FF4003202614FF40012426103760F
:1005800043768376C3760377437700F08DF800B91E
:1005900008BDFFF7B5FEFBE77800002000640040CF
:1005A000F0B589B000230393049305930693079352
:1005B00002681F4B9A4201D009B0F0BD002401949B
:1005C00003F5EA331A6C42F000721A641A6C02F0F6
:1005D00000720192019A02941A6B42F001021A63AE
:1005E0001B6B03F001030293029B4FF40063039320
:1005F00002250495012305930326069609270797EC
:1006000003A90C4800F0E4FE4FF4805303930495D3
:1006100005940696079703A9064800F0D9FE2246DE
:100620002146152001F0F6F9152001F003FAC3E781
:100630000064004000000240FEE7FEE7FEE7FEE740
:10064000FEE770477047704708B501F04BFA08BDE8
:1006500008B5024800F057FA08BD00BF7800002036
:1006600008B5024801F090F808BD00BF580200200C
:1006700082B0002100910B4B5A6C42F480425A64C4
:100680005A6C02F480420092009A01911A6C42F076
:1006900080521A641B6C03F080530193019B02B0DB
:1006A000704700BF00380240002800F0A18038B534
:1006B000044690F82030D3B12268136843F0010358
:1006C000136001F01BFA054623685A6812F0010F07
:1006D00010D101F013FA401B0A28F5D9636A43F4DC
:1006E00000336362052384F82030012038BDFFF712
:1006F00057FFE1E71A6822F002021A6001F0FEF9E2
:10070000054623685A6812F0020F0DD001F0F6F981
:10071000401B0A28F5D9636A43F40033636205235A
:1007200084F820300120E1E7227E012A3DD01A68BA
:1007300022F080021A60637E012B3BD0226813688E
:1007400023F040031360A37E012B39D02268136885
:1007500023F020031360E37E012B37D02268136857
:1007600043F010031360237F012B35D022681368F8
:1007700023F008031360637F012B33D022681368D2
:1007800023F004031360A368E26813432269134350
:10079000626913436268013A21681343CB61002008
:1007A0006062012384F82030A0E71A6842F08002DA
:1007B0001A60C0E72268136843F040031360C2E781
:1007C0002268136843F020031360C4E722681368AB
:1007D00023F010031360C6E72268136843F0080390
:1007E0001360C8E72268136843F004031360CAE784
:1007F0000120704790F82030013BDBB2012B05D976
:10080000436A43F4802343620120704710B5474B8D
:10081000D3F8002242F00102C3F80022D3F80022EC
:1008200022F47C52C3F80022D3F80022486A42EA3C
:100830000022C3F800224A6902F01F02012000FAD8
:1008400002F2D3F81C026FEA020C20EA0200C3F89D
:100850001C02CB69CBB9354BD3F80C020CEA000073
:10086000C3F80C02B1F804E04869CC684EEA044EC3
:10087000483043F830E008888C6840EA04404C690E
:1008800004F1480E03EBCE035860CB69012B1ED058
:100890008B69002B35D12548D0F804320CEA0303CC
:1008A000C0F804320B699BBB2048D0F814320CEA24
:1008B0000303C0F814320B6A012B30D01B4AD2F864
:1008C000003223F00103C2F80032002010BD174BA4
:1008D000D3F80C021043C3F80C02B1F804E04869E5
:1008E0000C684EEA044E483043F830E088898C6842
:1008F00040EA04404C6904F1480E03EBCE03586013
:10090000C6E70A48D0F804321343C0F80432C9E7F6
:100910000648D0F814321343C0F81432CBE7034929
:10092000D1F81C321343C1F81C32C7E70064004001
:1009300090F820C00CF1FF3C5FFA8CFCBCF1010F79
:1009400000F2BD8010B559B90468D4F80CC01CF091
:10095000030F11D1436A43F400134362012090E076
:100960000468D4F810C01CF0030F05D1436A43F4A7
:1009700000134362012084E001F11B0C4FEA0C1CC0
:10098000046854F80CC00CF0040CC2F808C0BCF1A8
:10099000000F77D101F11B0C4FEA0C1C046854F8CE
:1009A0000CC04FEA5C5CC2F800C001F11B0C4FEABE
:1009B0000C1C046854F80CE00EF0020EC2F80CE0B7
:1009C000D0F800E0F444DCF804C01CF0080F65D057
:1009D0004FF0080CC2F810C001F11B0E046804EBC4
:1009E0000E1CDCF804C0CCF3072CC2F818C0046855
:1009F00004EB0E1CDCF804C04FEA1C4CC2F814C017
:100A0000026802EB0112D2F8B8211A70026802EBF8
:100A10000112D2F8B821C2F307225A70026802EB21
:100A20000112D2F8B821C2F307429A70026802EBB1
:100A30000112D2F8B821120EDA70026802EB01122C
:100A4000D2F8BC211A71026802EB0112D2F8BC2163
:100A5000C2F307225A71026802EB0112D2F8BC21DC
:100A6000C2F307429A71026802EB0112D2F8BC216C
:100A7000120EDA71E9B90268D36843F02003D3603B
:100A8000002010BD01F11B0C4FEA0C1C046854F847
:100A90000CC04FEADC0CC2F804C086E701F11B0C65
:100AA0000EEB0C1EDEF804C00CF00F0CC2F810C0E8
:100AB00092E70268136943F020031361E0E7436A99
:100AC00043F4802343620120704790F82030013BBB
:100AD000DBB2012B05D9436A43F480234362012032
:100AE0007047026853690B43536100207047704799
:100AF000704770477047704770477047704770473E
:100B00007047704770472DE9F84F054603685C69E8
:100B1000D3F804809F68DA6891461A6992469A6908
:100B2000934614F001063BD017F0010616D00122BF
:100B30009A6017F0020F08D117F0040F0CD117F0CC
:100B4000080606D04FF4805608E0FFF7D0FF0026D5
:100B500004E0FFF7CFFF01E04FF4006617F4807F59
:100B60000DD02B684FF480729A6017F4007F40F02C
:100B7000928017F4806F00F0928046F4005617F4CC
:100B8000803F0DD02B684FF480329A6017F4003FFD
:100B900040F08F8017F4802F00F08F8046F40046DD
:100BA00014F0080F07D019F0100F04D046F40076A7
:100BB0002B681022DA6014F0040F03D019F0080F2C
:100BC00040F0858014F0020F05D02B68DB6813F02D
:100BD000030F40F0838014F0400F07D01AF0100F7D
:100BE00004D046F480662B6810221A6114F0200F9E
:100BF00002D01AF0080F75D114F0100F04D02B6832
:100C00001B6913F0030F74D114F4003F02D018F0E5
:100C1000100F72D114F4803F02D018F0080F73D176
:100C200014F4004F33D018F0040F2DD014F4807F4B
:100C300004D01BF0010F01D046F0010614F4007F30
:100C400004D01BF0020F01D046F0020614F4806FAE
:100C500004D01BF0040F01D046F0040614F4006F1A
:100C600012D01BF070030FD0402B61D053D8202B33
:100C700058D0302B59D0102B01D146F008062A68E5
:100C8000936923F0700393612B6804225A60002E4D
:100C900054D1BDE8F88F2846FFF72AFF6FE717F415
:100CA000006F02D046F4804669E72846FFF723FF2D
:100CB00065E72846FFF71DFF72E717F4002F02D003
:100CC00046F480366CE72846FFF716FF68E72B6886
:100CD0000822DA602846FFF711FF73E72846FFF77E
:100CE0000CFF78E72B6808221A612846FFF707FFF8
:100CF00082E7284602F0B2FF86E72B6810225A608E
:100D00002846FFF7FDFE85E72B6808225A60284633
:100D1000FFF7F7FE84E7502B0DD0602BAFD146F4E0
:100D20008076ACE746F01006A9E746F02006A6E775
:100D300046F04006A3E746F08006A0E76B6A33431F
:100D40006B622846FFF7DEFEA3E70000002800F0F4
:100D5000E28170B582B00446036813F0010F3BD006
:100D60009B4B9B6803F00C03042B2CD0984B9B6887
:100D700003F00C03082B21D06368B3F5803F4FD0FC
:100D8000B3F5A02F52D0924B1A6822F480321A6029
:100D90001A6822F480221A606368002B50D000F099
:100DA000ADFE05468A4B1B6813F4003F14D100F0DA
:100DB000A5FE401B6428F5D90320B3E1844B5B6892
:100DC00013F4800FD8D0824B1B6813F4003F03D07C
:100DD0006368002B00F0A181236813F0020F54D048
:100DE0007B4B9B6813F00C0F3ED0794B9B6803F054
:100DF0000C03082B33D0E368002B68D0754B01221D
:100E00001A6000F07BFE0546714B1B6813F0020F61
:100E100054D100F073FE401B0228F5D9032081E174
:100E20006B4A136843F480331360B5E7684B1A6864
:100E300042F480221A601A6842F480321A60ABE7EA
:100E400000F05CFE0546624B1B6813F4003FC3D004
:100E500000F054FE401B6428F5D9032062E15C4B8E
:100E60005B6813F4800FC6D1594B1B6813F0020F57
:100E700003D0E368012B40F05281554A136823F0F8
:100E8000F803216943EAC1031360236813F0080FD4
:100E900042D063696BB34F4B0122C3F8802E00F040
:100EA0002DFE05464A4B5B6F13F0020F34D100F064
:100EB00025FE401B0228F5D9032033E1444A13687C
:100EC00023F0F803216943EAC1031360DDE7414BD6
:100ED00000221A6000F012FE05463D4B1B6813F01D
:100EE000020FD2D000F00AFE401B0228F5D90320E1
:100EF00018E1384B0022C3F8802E00F0FFFD0546B4
:100F0000334B5B6F13F0020F06D000F0F7FD401B70
:100F10000228F5D9032005E1236813F0040F79D0E6
:100F20002B4B1B6C13F0805F34D100230193284BB3
:100F30001A6C42F080521A641B6C03F080530193C8
:100F4000019B01231E46244B1B6813F4807F24D091
:100F5000A368012B35D0052B40D01D4B1A6F22F012
:100F600001021A671A6F22F004021A67A368002BA5
:100F70003ED000F0C3FD0546154B1B6F13F0020F6A
:100F800047D100F0BBFD401B41F288339842F3D9B2
:100F90000320C7E000231E46D5E70F4A136843F439
:100FA0008073136000F0AAFD05460B4B1B6813F419
:100FB000807FCDD100F0A2FD401B0228F5D903208F
:100FC000B0E0034A136F43F001031367CEE700BF9D
:100FD000003802400000474200700040584B1A6F32
:100FE00042F004021A671A6F42F001021A67BDE765
:100FF00000F084FD0546524B1B6F13F0020F08D022
:1010000000F07CFD401B41F288339842F3D9032065
:1010100088E0EEB9A369002B00F08380484A92680B
:1010200002F00C02082A51D0022B17D0454B0022A7
:101030001A6600F063FD0446414B1B6813F0007F05
:1010400042D000F05BFD001B0228F5D9032069E0C7
:101050003B4A136C23F080531364DBE7394B0022C7
:101060001A6600F04BFD0546354B1B6813F0007FF8
:1010700006D000F043FD401B0228F5D9032051E0C3
:10108000E369226A1343626A43EA8213A26A52083E
:10109000013A43EA0243E26A43EA0263284A5360A0
:1010A000284B01221A6600F029FD0446244B1B68D8
:1010B00013F0007F06D100F021FD001B0228F5D9B6
:1010C00003202FE000202DE000202BE0012B2BD06F
:1010D0001B4B5B6803F48001E269914226D103F067
:1010E0003F02216A8A4223D1616A47F6C0721A40E0
:1010F000B2EB811F1ED103F44031A26A5208013ABB
:10110000B1EB024F18D103F07063E26AB3EB026FE8
:1011100014D1002006E001207047012002E00120E8
:1011200000E0184602B070BD0120FBE70120F9E79E
:101130000120F7E70120F5E70120F3E70120F1E7BF
:10114000003802400000474208B5334B9B6803F06B
:101150000C03042B5BD0082B5BD12F4B5A6802F099
:101160003F025B6813F4800F2CD02B4B5868C0F300
:1011700088104FEA401CBCEB000C6EEB0E0E4FEAE1
:101180008E1343EA9C634FEA8C11B1EB0C0163EBC5
:101190000E03DB0043EA5173C90011EB000C43F16D
:1011A0000003590200234FEA4C2041EADC51FFF7CB
:1011B00047F8194B5B68C3F3014301335B00B0FB95
:1011C000F3F008BD144B5868C0F388104FEA401C78
:1011D000BCEB000C6EEB0E0E4FEA8E1343EA9C63E1
:1011E0004FEA8C11B1EB0C0163EB0E03DB0043EA19
:1011F0005173C90011EB000C43F100039902002365
:101200004FEA8C2041EA9C51FFF71AF8D1E70348D6
:10121000D7E70348D5E700BF0038024000127A0044
:101220000024F400002800F09B8070B50D460446B1
:101230004F4B1B6803F007038B4208D2CBB24C4ADA
:101240001370136803F007038B4240F08B80236810
:1012500013F0020F17D013F0040F04D0454A93681F
:1012600043F4E0539360236813F0080F04D0414A1D
:10127000936843F4604393603E4A936823F0F0031D
:10128000A1680B439360236813F0010F32D06368A9
:10129000012B21D09A1E012A25D9364A126812F054
:1012A000020F61D033498A6822F0030213438B6036
:1012B00000F024FC06462F4B9B6803F00C03626889
:1012C000B3EB820F16D000F019FC801B41F288337B
:1012D0009842F0D9032042E0264A126812F4003FF7
:1012E000E0D101203BE0234A126812F0007FD9D1FF
:1012F000012034E01E4B1B6803F00703AB4207D903
:10130000EAB21B4B1A701B6803F00703AB422DD1E6
:10131000236813F0040F06D0164A936823F4E053B1
:10132000E1680B439360236813F0080F07D0114A5C
:10133000936823F46043216943EAC1039360FFF794
:1013400003FF0C4B9B68C3F303130B4AD35CD840D9
:101350000A4B18600A4B186800F084FB002070BD2F
:10136000012070470120FAE70120F8E70120F6E7A5
:10137000003C024000380240E84B00080800002012
:1013800004000020014B1868704700BF08000020CF
:1013900008B5FFF7F7FF044B9B68C3F38223034AAA
:1013A000D35CD84008BD00BF00380240E04B0008C5
:1013B00008B5FFF7E7FF044B9B68C3F34233034ACA
:1013C000D35CD84008BD00BF00380240E04B0008A5
:1013D00070B582B08E46002369E085684FEA430C01
:1013E000032101FA0CF125EA0105DEF80C1001FADF
:1013F0000CF129438160416821EA0201DEF80420F2
:10140000C2F300129A400A43426065E0D9080831ED
:1014100050F8212003F00705AD004FF00F0C0CFA37
:1014200005FC22EA0C0CDEF81020AA4042EA0C026D
:1014300040F8212067E0072200E0002202FA0CF2C7
:101440002A430231604D45F82120604A9168E24309
:1014500021EA0405DEF8046016F4801F01D044EA96
:1014600001055A498D60C96802EA0105DEF8046089
:1014700016F4001F01D044EA01055449CD604968C3
:1014800002EA0105DEF8046016F4003F01D044EAE8
:1014900001054E494D6009680A40DEF8045015F414
:1014A000803F01D044EA010248490A6001330F2B12
:1014B00000F2878001229A40DEF8001001EA02045F
:1014C00032EA0101F2D1DEF8041001F0030C0CF154
:1014D000FF3CBCF1010F80D9DEF8042002F00302CA
:1014E000032A0AD0C1685D000322AA4021EA020152
:1014F000DEF80820AA400A43C260DEF8042002F0A9
:101500000302022A82D001684FEA430C032202FA46
:101510000CF221EA0201DEF8042002F0030202FAD2
:101520000CF20A430260DEF8042012F4403FBDD002
:1015300000220192264A516C41F480415164526C60
:1015400002F480420192019A99088D1C1E4A52F8B9
:10155000255003F0030C4FEA8C0C0F2202FA0CF218
:1015600025EA02051B4A90423FF467AF02F580620C
:1015700090421AD002F58062904218D002F5806243
:10158000904216D002F58062904214D002F580623B
:10159000904212D002F58062904210D002F5806233
:1015A00090423FF448AF082248E7012246E7022272
:1015B00044E7032242E7042240E705223EE70622F1
:1015C0003CE702B070BD00BF00380140003C014064
:1015D00000380240000002400AB1816170470904EE
:1015E000816170470368D9B210390A4AA2FB01C26F
:1015F0001209DFF824C01CF80220C2655F2905D952
:101600006FF3090304338365806D70476FF309033B
:101610008365F9E7ABAAAAAAD84B0008836A826956
:1016200092B9012B0AD0022B02D00BB100207047D7
:10163000C36A13F0807F2CD100207047C36AB3F1D6
:10164000C07F28D000207047B2F5005F09D0022B80
:101650002BD9032B2BD1C36A13F0807F29D1002013
:101660007047022B19D00AD8CBB1012B05D1C36A20
:1016700013F0807F15D10020704700207047032BA6
:1016800005D1C36AB3F1C07F0DD0002070470020A0
:1016900070470120704701207047012070470120EA
:1016A00070470120704701207047012070470020DB
:1016B000704701207047000070B5044600F01EFA24
:1016C000002C5CD00546022384F83530002384F8D2
:1016D00034302268136823F00103136023681A680A
:1016E00012F0010F0AD000F009FA431B052BF5D9BF
:1016F00020236365032084F8350070BD1A682149F2
:1017000011406268A0680243E06802432069024316
:1017100060690243A0690243E0690243206A024310
:101720000A43616A04291FD01A6023681E465D6956
:1017300025F00705636A1D43042B07D1A36A1D43E7
:10174000E36A1BB12046FFF769FF90B97561204637
:10175000FFF748FFE26D3F23934083600020606500
:10176000012384F83530C8E7E16A206B01430A435E
:10177000DAE740236365012084F83500BDE70120E6
:10178000BBE700BF3F8010F0F0B583B004460023F4
:101790000193724B1D68724BA3FB0535AD0A876D33
:1017A0003E68C26D08239340334210D003681A6824
:1017B00012F0040F0BD01A6822F004021A60C26DF6
:1017C00008239340BB60436D43F001034365E26D22
:1017D00001239340334209D02268526912F0800FEE
:1017E00004D0BB60636D43F002036365E26D0423C4
:1017F0009340334209D02268126812F0020F04D0DD
:10180000BB60636D43F004036365E26D1023934096
:10181000334224D02268126812F0080F1FD0BB6038
:1018200023681A6812F4802F0DD01B6813F4002F60
:1018300004D1236C9BB12046984710E0A36C73B190
:10184000204698470BE01A6812F4807F03D11A688B
:1018500022F008021A60236C0BB120469847E26D13
:1018600020239340334254D02268126812F0100FA4
:101870004FD0BB6094F83530052B0ED023681A6822
:1018800012F4802F33D01B6813F4002F2AD1636C1D
:10189000002B3ED0204698473BE02268136823F097
:1018A000160313602268536923F080035361236C8D
:1018B000A3B12268136823F008031360E26D3F238D
:1018C0009340BB60012384F83530002384F8343022
:1018D000236D002B3FD0204698473CE0A36C002BA3
:1018E000E7D1EBE7E36BA3B12046984711E01A6814
:1018F00012F4807F09D11A6822F010021A600123C5
:1019000084F83530002384F83430E36B0BB1204683
:101910009847636DFBB1636D13F0010F17D005237A
:1019200084F835302268136823F001031360019BAB
:1019300001330193AB4204D823681B6813F0010FF5
:10194000F5D1012384F83530002384F83430E36C7A
:101950000BB12046984703B0F0BD00BF080000203F
:10196000B5814E1B002807DB00F01F024009012350
:101970009340024A42F82030704700BF00E100E087
:10198000002808DB0901C9B200F1604000F56140A0
:1019900080F80013704700F00F000901C9B2014B35
:1019A0001954704714ED00E000B500F00700A0F1F5
:1019B000030CBCF1040F07D8C0F1070E0430062851
:1019C00006D84FF0000C03E04FF0040E4FF0000C6F
:1019D0004FF0FF3303FA0EF021EA000101FA0CF197
:1019E00003FA0CF322EA030241EA020000BD000000
:1019F000074AD36823F4E0631B041B0C000200F4C5
:101A0000E060034343F0BF6343F40033D3607047A7
:101A100000ED00E010B50446054BD868C0F3022085
:101A2000FFF7C2FF01462046FFF7AAFF10BD00BF27
:101A300000ED00E008B5FFF795FF08BD0138B0F1F3
:101A4000807F0BD24FF0E0235861054AF02182F8E5
:101A500023100020986107221A6170470120704707
:101A600000ED00E010B504460E4B18680E4B1A78D6
:101A70004FF47A73B3FBF2F3B0FBF3F0FFF7DEFF42
:101A800068B90F2C01D901200AE0024621464FF027
:101A9000FF30FFF7BFFF054B1C60002000E0012076
:101AA00010BD00BF0800002000000020040000203E
:101AB00008B50B4B1A6842F400721A601A6842F4B7
:101AC00080621A601A6842F480721A600320FFF77D
:101AD0008FFF0F20FFF7C6FFFEF7CAFD002008BDED
:101AE000003C0240034A1168034B1B780B4413600F
:101AF000704700BFA000002000000020014B1868C4
:101B0000704700BFA000002038B50446FFF7F6FF7D
:101B10000546B4F1FF3F02D0044B1B781C44FFF78D
:101B2000EDFF401BA042FAD338BD00BF00000020EB
:101B3000034AD2F8883043F47003C2F88830704703
:101B400000ED00E008B503460D4A0E490E48006856
:101B500040B10D4800680344521A934208D80A4A1B
:101B6000136008BD0848DFF824C0C0F800C0F0E7E3
:101B700002F07CFA0C2303604FF0FF30F1E700BF66
:101B80000000022000040000A4000020D80600206D
:101B900010B58CB003AC24220021204602F04EFA8E
:101BA00000230193029312484FF080420260436089
:101BB00083604FF0FF32C2600361836103230393AC
:101BC000012305930993214600F0FEFA48B900234A
:101BD0000193029301A9064800F0F4FC20B90CB06F
:101BE00010BDFEF78DFBF2E7FEF78AFBF7E700BFBB
:101BF0003801002010B58CB003AC2422002120460F
:101C000002F01CFA0023019302931148114A02606A
:101C1000436083604FF6FF72C260036183610323F8
:101C20000393012305930993214600F0CDFA48B9A7
:101C300000230193029301A9054800F0C3FC20B9D9
:101C40000CB010BDFEF75CFBF2E7FEF759FBF7E7BF
:101C5000F00000200004004082B00368104A934264
:101C600004D0104A93420ED002B070470023009374
:101C70000D4B5A6C42F001025A645B6C03F0010395
:101C80000093009BF0E700230193074B5A6C42F04E
:101C900002025A645B6C03F002030193019BE3E7C9
:101CA00000000140000401400038024000B58BB044
:101CB0000023059306930793089309930368B3F1F0
:101CC000804F04D0234A934223D00BB000BD0021A3
:101CD000019103F50E331A6C42F001021A641A6C7A
:101CE00002F001020192019A02911A6B42F0010284
:101CF0001A631B6B03F001030293029B22230593DB
:101D0000022306930123099305A91348FFF760FBFB
:101D1000DBE700210391114B1A6C42F002021A64B6
:101D20001A6C02F002020392039A04911A6B42F0B9
:101D300001021A631B6B03F001030493049BC0238D
:101D4000059302230693099305A90348FFF740FB77
:101D5000BBE700BF00040040000002400038024022
:101D600000B589B00023039304930593069307936A
:101D700003681B4A934204D01A4A934219D009B00F
:101D800000BD00230193184B1A6B42F001021A6345
:101D90001B6B03F001030193019B4FF4007303934A
:101DA000022304930123079303A91048FFF710FBB4
:101DB000E5E7002302930C4B1A6B42F004021A630E
:101DC0001B6B03F004030293029B40230393022343
:101DD00004930323079303A90548FFF7F9FACEE715
:101DE00000000140000401400038024000000240B1
:101DF0000008024010B592B0002410941194099488
:101E00000A940B940C940D940E940F942022214666
:101E100001A802F013F92348234B03604460846057
:101E200042F2CF03C36004614461846100F0A0F911
:101E300000282AD100231093119310A9194800F00B
:101E4000C1FB28BB6023099300230A930B930C93D7
:101E50000D930E930F93042209A9124800F04AFA39
:101E6000C8B90023019302930393049305934FF49D
:101E700000520692089301A90A4800F0E9FB68B9EC
:101E80000848FFF76DFF12B010BDFEF739FAD1E731
:101E9000FEF736FAD6E7FEF733FAE2E7FEF730FA56
:101EA000EEE700BF800100200000014010B592B0B5
:101EB00000241094119409940A940B940C940D949A
:101EC0000E940F942022214601A802F0B7F8224870
:101ED000224B03604460846042F2CF03C36004611C
:101EE0004461846100F044F9002829D10023109353
:101EF000119310A9184800F065FB20BB60230993DB
:101F000000220A920B920C920D920E920F9209A946
:101F1000114800F0EFF9C8B900230193029303932D
:101F2000049305934FF400520692089301A90A48BE
:101F300000F08EFB68B90848FFF712FF12B010BD21
:101F4000FEF7DEF9D2E7FEF7DBF9D7E7FEF7D8F9BF
:101F5000E2E7FEF7D5F9EEE7A80000200004014013
:101F600010B5036A026A22F0010202624268D0F8E8
:101F700018C02CF0730C0C6844EA0C0C23F0020E11
:101F80008B6843EA0E03DFF848E0704503D00EF596
:101F9000806E704505D123F00803CC68234323F0FD
:101FA0000403DFF82CE0704503D00EF5806E704519
:101FB00007D122F440724C6944EA020E8A6942EA6F
:101FC0000E024260C0F818C04A684263036210BD46
:101FD0000000014010B5036A026A22F480720262B6
:101FE0004268D0F81CC02CF0730C0C6844EA0C0E4C
:101FF00023F400738C6843EA0423DFF84CC0604587
:1020000003D00CF5806C604506D123F40063CC68E6
:1020100043EA042323F48063DFF82CC0604503D037
:102020000CF5806C604507D122F440524C6942EABD
:1020300004128C6942EA04124260C0F81CE04A684B
:10204000C263036210BD00BF0000014010B5036A07
:10205000026A22F480520262D0F804C0C26922F4FB
:10206000E6420C6842EA042223F400538C6843EAF7
:102070000433DFF828E0704503D00EF5806E70451C
:1020800004D12CF4804C4C694CEA841CC0F804C088
:10209000C2614A680264036210BD00BF00000140D3
:1020A0000368324A904212D0B0F1804F0FD0A2F5AF
:1020B0007C4290420BD002F58062904207D002F53C
:1020C0008062904203D002F57842904203D123F01F
:1020D00070034A681343254A90422AD0B0F1804FDA
:1020E00027D0A2F57C42904223D002F58062904234
:1020F0001FD002F5806290421BD002F578429042D8
:1021000017D002F57052904213D002F580629042CF
:102110000FD002F5806290420BD0A2F59832904227
:1021200007D002F58062904203D002F580629042AF
:1021300003D123F44073CA68134323F080034A6930
:1021400013438A68C2620A688262084A904203D0D6
:1021500002F58062904201D10A690263026842F08E
:1021600004020260012242610360704700000140E6
:1021700040B310B5044690F83D30F3B1022384F823
:102180003D30214651F8040BFFF78AFF012384F804
:10219000463084F83E3084F83F3084F8403084F88C
:1021A000413084F8423084F8433084F8443084F875
:1021B000453084F83D30002010BD80F83C30FFF7FA
:1021C0004BFDDBE701207047002855D070B50D4668
:1021D000044690F83D30002B49D0022384F83D306E
:1021E0002268936823F4804323F007039360214619
:1021F00051F8040BFFF754FF21688B688A69D1F806
:1022000020C02868184322F4407222F00302AB6811
:10221000AE6943EA0623134323F47C4323F0FC0313
:10222000EA68EE6942EA06221A432B6A1B032E690A
:1022300043EA061313432CF0AA0C6A686D6942EA5C
:10224000051242EA0C02886021688B6123681A62D9
:10225000012384F8463084F83E3084F83F3084F817
:10226000423084F8433084F83D30002070BD80F85F
:102270003C30FFF71BFDB0E70120704710B5036A43
:10228000026A22F010020262D0F804C0826922F4CD
:10229000E6420C6842EA042223F020038C6843EAF9
:1022A0000413DFF84CE0704503D00EF5806E7045E6
:1022B00006D123F08003CC6843EA041323F04003E3
:1022C000DFF82CE0704503D00EF5806E704507D125
:1022D0002CF4406C4C694CEA840C8C694CEA840CFC
:1022E000C0F804C082614A688263036210BD00BF07
:1022F0000000014038B590F83C30012B69D004460D
:10230000012380F83C30082A4ED01BD8002A33D055
:10231000042A15D10D460068FFF7B0FF22689369C3
:1023200043F4006393612268936923F480639361AB
:1023300022689369296943EA0123936100202FE011
:1023400018462DE00C2A15D10D460068FFF77EFED9
:102350002268D36943F40063D3612268D36923F40C
:102360008063D3612268D369296943EA0123D36179
:10237000002015E0012013E00D460068FFF7F0FD96
:102380002268936943F0080393612268936923F0FC
:10239000040393612268936929690B4393610020C8
:1023A000002384F83C3038BD0D460068FFF712FE6C
:1023B0002268D36943F00803D3612268D36923F00C
:1023C0000403D3612268D36929690B43D3610020D8
:1023D000E6E70220E7E701F01F014FF0010C0CFADD
:1023E00001FC036A23EA0C030362036A8A40134375
:1023F0000362704710B504460846002941D194F89D
:102400003E30013B18BF0123002B6BD100284ED179
:10241000022384F83E30012201462068FFF7DBFFEB
:102420002368324A934203D002F58062934203D17B
:102430005A6C42F400425A6423682C4A934246D0B4
:10244000B3F1804F43D0A2F57C4293423FD002F5D6
:10245000806293423BD002F58062934237D002F50E
:102460007842934233D002F5705293422FD0A2F5B6
:10247000943293422BD01A6842F001021A60002075
:102480002FE0042907D008290BD094F84130013BF4
:1024900018BF0123B8E794F83F30013B18BF012370
:1024A000B2E794F84030013B18BF0123ACE70428A1
:1024B00005D0082807D0022384F84130ABE7022377
:1024C00084F83F30A7E7022384F84030A3E79A68F6
:1024D00002F00702062A07D01A6842F001021A60C9
:1024E000002010BD0120FCE70020FAE700000140B9
:1024F00010B5044690F83E00C0B294F83F3094F80E
:102500004220D2B294F843C08E46C9B901284CD1BA
:10251000012A4BD1022384F83E3084F84230BEF1C8
:10252000000F30D0BEF1040F39D001220021206805
:10253000FFF751FF012204212068FFF74CFF27E03D
:10254000DBB25FFA8CFC042912D0012833D1012BB5
:102550002CD1012A31D1BCF1010F30D1022384F8F2
:102560003E3084F83F3084F8423084F84330D6E778
:10257000012B1CD1BCF1010F1BD1022384F83F3089
:1025800084F84330CBE7012271462068FFF723FF30
:102590002268136843F001031360002006E0012263
:1025A00004212068FFF717FFF2E7012010BD01208A
:1025B000FCE71846FAE70120F8E71846F6E7104668
:1025C000F4E7000090F83C20012A3DD000B5034616
:1025D000012280F83C20022280F83D2002685068E9
:1025E000D2F808E020F0700C086840EA0C00506057
:1025F0001A68164882421AD0B2F1804F17D0A0F55F
:102600007C40824213D000F5806082420FD000F5FA
:10261000806082420BD000F57840824207D000F5FE
:102620007050824203D0A0F59430824205D12EF042
:10263000800E496841EA0E019160012283F83D2035
:10264000002083F83C0000BD0220704700000140DC
:10265000024690F83C30012B21D0012380F83C3019
:10266000CB6823F440738868034323F4806348688D
:10267000034323F400630868034323F48053086989
:10268000034323F400534869034323F48043C96997
:102690000B4311684B64002082F83C007047022015
:1026A0007047000008B50A480A4B03604FF4E13355
:1026B000436000238360C36003610C224261836135
:1026C000C36100F07DF900B908BDFDF719FEFBE715
:1026D000100200200044004008B50A480A4B03607D
:1026E0004FF4E133436000238360C36003610C2235
:1026F00042618361C36100F063F900B908BDFDF771
:10270000FFFDFBE7C80100200048004000B58BB08A
:102710000023059306930793089309930368274AB8
:10272000934204D0264A934224D00BB000BD00212E
:102730000191244B1A6C42F400321A641A6C02F4B0
:1027400000320192019A02911A6B42F001021A635F
:102750001B6B03F001030293029B0C2305930223DE
:102760000693032308930723099305A91648FEF748
:102770002FFEDAE700210391124B1A6C42F48022FB
:102780001A641A6C02F480220392039A04911A6B61
:1027900042F008021A631B6B03F008030493049BC6
:1027A0004FF44073059302230693032308930723F2
:1027B000099305A90548FEF70BFEB6E70044004063
:1027C000004800400038024000000240000C024077
:1027D000026802F10C0353E8003F23F490730C32BB
:1027E00042E800310029F3D1026802F1140353E8F2
:1027F000003F23F00103143242E800310029F3D1F5
:10280000036B012B05D0202380F8423000230363A3
:102810007047026802F10C0353E8003F23F01003F5
:102820000C3242E800310029F3D1ECE710B5044640
:102830000268136923F44053C1680B431361836832
:1028400002691A4343691A43C3691A430168CB6892
:1028500023F4164323F00C031343CB60026853693F
:1028600023F4407381690B4353610368314A9342F7
:1028700006D002F58062934202D0FEF789FD01E0A6
:10288000FEF796FDE369B3F5004F29D00021031848
:1028900049411B1841F10001C90041EA5371DB00B5
:1028A000181863684FEA83024FEA937341F10001FD
:1028B000FDF7C6FC204AA2FB00314909642303FB53
:1028C00011031B013233A2FB03235B0903F0F00267
:1028D00002EB011203F00F03216813448B6010BD5B
:1028E0000023021843EB0301121841F10001C90053
:1028F00041EA5271D200101841F100016268921849
:102900005B41FDF79DFC0C4AA2FB003149096423A1
:1029100003FB1103DB003233A2FB03235B095A00E4
:1029200002F4F87202EB011203F00703216813446A
:102930008B60D4E7001001401F85EB512DE9F04179
:1029400082B004460D4616469846089F23681B68C9
:1029500035EA03030CBF4FF0010C4FF0000CB445F7
:1029600026D1B7F1FF3FF1D0FFF7C8F84346C01AB0
:10297000B84221D817B32368DA6812F0040FE5D003
:10298000802DE3D0402DE1D01A6812F0080FDDD081
:10299000002501951A6801925B680193019B20460E
:1029A000FFF716FF0823636484F84050012000E01D
:1029B000002002B0BDE8F0810320FAE70320F8E729
:1029C00060B310B5044690F8413013B3242384F863
:1029D00041302268D36823F40053D3602046FFF7C8
:1029E00025FF2268136923F4904313612268536919
:1029F00023F02A0353612268D36843F40053D36061
:102A000000206064202384F8413084F84230606301
:102A100010BD80F84030FFF779FED7E701207047FE
:102A20002DE9F04184B01E4690F84130202B57D15B
:102A300004460D46002957D003920AB9012050E000
:102A400000234364212380F84130FFF757F80746FD
:102A5000039BA384E384A368B3F5805F02D00023C3
:102A6000984616E023693BB30023984611E02023E3
:102A700084F84130032034E0424632F8023B90466D
:102A80002268C3F308035360E28C92B2013A92B217
:102A9000E284E38C9BB293B100963B4600228021F6
:102AA0002046FFF74BFF0028E1D1002DE4D015F8B8
:102AB000012B23685A60E7E7A8461D46E9E7009620
:102AC0003B46002240212046FFF738FF18B920235B
:102AD00084F8413005E0202384F84130032000E0F1
:102AE000022004B0BDE8F0810120FAE700B585B00E
:102AF000002300930193029303931448144A026045
:102B00004FF48032426083600361037680F82030A6
:102B1000C362104A8262C3600122C26180F8303011
:102B2000426100F05DF958B900230093012201923F
:102B300002936946054800F07FF920B905B000BD51
:102B4000FDF7DEFBF0E7FDF7DBFBF7E7B80200205F
:102B5000002201400100000F30B589B0002303932B
:102B600004930593069307930268214B9A4201D080
:102B700009B030BD04460025019503F58B335A6C2E
:102B800042F480625A645A6C02F480620192019AA3
:102B900002951A6B42F001021A631B6B03F00103EA
:102BA0000293029B012303930323049303A9114877
:102BB000FEF70EFC1048114B03604FF0806343603A
:102BC0008560C5604FF4806303614FF40063436127
:102BD0004FF400538361C56105624562FEF76CFDE9
:102BE00018B9054BA3639C63C2E7FDF789FBF8E7BF
:102BF0000022014000000240580200201064024000
:102C000008B50B480B4B03600B4B436000238360FC
:102C1000C3604FF48042026143618361C361036218
:102C200000F06EFC00B908BDFDF76AFBFBE700BFD2
:102C30000003002000540040A086010030B589B098
:102C40000023039304930593069307930268144BA0
:102C50009A4201D009B030BD00250195114C236B7B
:102C600043F002032363236B03F002030193019BF0
:102C70004FF4407303931223049303230693042316
:102C8000079303A90848FEF7A3FB0295236C43F4BE
:102C900000132364236C03F400130293029BD9E70F
:102CA0000054004000380240000402404A4B5A6879
:102CB00022F440325A605A6841680A435A600268F6
:102CC000536823F48073536002685368016943EAD0
:102CD000012353600268536823F040735360026815
:102CE000536881680B4353600268936823F4006360
:102CF000936002689368C1680B439360826A374BA4
:102D00009A4257D00268936823F070639360026818
:102D10009368816A0B4393600268936823F0405381
:102D2000936002689368C16A0B439360026893687A
:102D300023F00203936002689368017E43EA410333
:102D4000936090F82030002B3FD00268536843F422
:102D5000006353600268536823F460435360016862
:102D60004B68426A013A43EA42334B600268D36AD5
:102D700023F47003D3620168CB6AC269013A43EA63
:102D80000253CB620268936823F400739360026875
:102D9000936890F8301043EA412393600268936887
:102DA00023F48063936002689368416943EA812356
:102DB000936070470268936823F0706393600268C1
:102DC000936823F040539360B0E70268536823F49C
:102DD00000635360CAE700BF002301400100000FF9
:102DE00038B310B50446036C43B1236C13F0100FD5
:102DF0000BD00120002384F83C3010BDFFF7ACFE5F
:102E00000023636484F83C30EFE7236C23F4885399
:102E100023F0020343F0020323642046FFF746FF3A
:102E200000206064236C23F0030343F00103236458
:102E3000E0E701207047000010B582B00022019247
:102E400090F83C20012A00F0D7800346012280F848
:102E50003C200A68092A4BD9D0F800E0DEF80C00C3
:102E600092B20A3A02EB42024FF0070C0CFA02F25D
:102E700020EA0202CEF80C20D3F800C0DCF80C00E7
:102E80000A880A3A02EB42028C6804FA02F2024310
:102E9000CCF80C204A68062A47D8D3F800E0DEF8C0
:102EA0003400013A02EB82024FF01F0C0CFA02F2DE
:102EB00020EA0202CEF83420D3F800E0DEF8340035
:102EC0004A68013A02EB8202B1F800C00CFA02F241
:102ED0000243CEF834201868484A904265D01868FA
:102EE000464A90426AD0002083F83C0002B010BDF0
:102EF000D0F800E0DEF8100092B202EB42024FF090
:102F0000070C0CFA02F220EA0202CEF81020D3F8E5
:102F100000C0DCF810000A8802EB42028C6804FA58
:102F200002F20243CCF81020B4E70C2A1ED8D3F8E2
:102F300000E0DEF83000073A02EB82024FF01F0C8F
:102F40000CFA02F220EA0202CEF83020D3F800E0B8
:102F5000DEF830004A68073A02EB8202B1F800C09E
:102F60000CFA02F20243CEF83020B4E7D3F800E0C6
:102F7000DEF82C000D3A02EB82024FF01F0C0CFA27
:102F800002F220EA0202CEF82C20D3F800E0DEF8AC
:102F90002C004A680D3A02EB8202B1F800C00CFA2C
:102FA00002F20243CEF82C2095E70A68122A96D145
:102FB0001348426842F48002426090E70A68103A7F
:102FC000012A90D80E48426842F4000242600A6822
:102FD000102A88D10B4A12680B49A1FB0212920CED
:102FE00002EB82025200019202E0019A013A019240
:102FF000019A002AF9D176E7022077E70020014004
:10300000002301400800002083DE1B4303685A6947
:1030100012F4806F01D1002070476FF480625A6112
:1030200000230363202280F83D2080F83E30026CAC
:1030300042F00402026480F83C30012070472DE920
:10304000F04106460C46174698463BE0FEF756FD13
:10305000069BC01A404502D8B8F1000F32D1012DAD
:1030600018D033689B6924EA03039BB2B3FA83F355
:103070005B099F4226D100233363202286F83D203E
:1030800086F83E30326C42F02002326486F83C30E2
:10309000012027E033685B6924EA03039BB2B3FA9B
:1030A00083F35B09E5E733685B6924EA030C1FFAE5
:1030B0008CFCBCFA8CFC4FEA5C1C674511D1B8F162
:1030C000FF3FC3D1C4F30745012DECD033689B69A2
:1030D00024EA030C1FFA8CFCBCFA8CFC4FEA5C1C43
:1030E000EBE70020BDE8F0812DE9F04104460D46F4
:1030F0001746984652E01A6842F400721A60236834
:103100006FF480625A6100232363202284F83D20FB
:1031100084F83E30226C42F00402226484F83C3091
:10312000012049E0FEF7EAFC4346C01AB84201D844
:10313000002F33D1012E17D023689B6925EA0303A2
:103140009BB2003B18BF012343B30023236320221B
:1031500084F83D2084F83E30226C42F02002226444
:1031600084F83C30012027E023685B6925EA0303EB
:103170009BB2003B18BF0123E6E723689B6925EA61
:1031800003039BB2003B18BF0123A3B123685A6914
:1031900012F4806FAFD1B7F1FF3FC3D1C5F307463B
:1031A000012EEAD123685B6925EA03039BB2003B49
:1031B00018BF0123E9E71846BDE8F08170B5044661
:1031C0000D46164623685B6913F0800F21D1204617
:1031D000FFF71CFFF8B9B5F1FF3FF3D0FEF78EFC07
:1031E000801BA84201D8002DECD123685B6913F045
:1031F000800FE7D100232363202284F83D2084F848
:103200003E30226C42F02002226484F83C300120DF
:1032100000E0002070BD0120FCE70000F0B585B0A3
:1032200004460D4616461F460368196841F480712E
:1032300019600B9B00930A9B00224FF00111FFF7CE
:10324000FEFE60B9226805F0FE0313610B9B0A9A2B
:1032500023492046FFF748FF60B1012008E02368BA
:103260001B6813F4807F02D04FF4007323640320A3
:1032700005B0F0BD039023685A6903929B690393DC
:10328000039B0B9A0A992046FFF798FF28B9012F54
:103290000ED12368F2B21A61EAE7236C042B01D045
:1032A0000120E5E72268136843F400731360F7E731
:1032B000330A226813610B9A0A992046FFF77EFFB2
:1032C00018B92268F3B21361D2E7236C042B01D042
:1032D0000120CDE72268136843F400731360F7E719
:1032E00002000100F0B585B004460D4616461F46A3
:1032F0000268136843F4806313600268136843F440
:10330000807313600B9B00930A9B00224FF0011106
:10331000FFF795FE60B9236805F0FE021A610B9B6A
:103320000A9A40492046FFF7DFFE60B1012008E01D
:1033300023681B6813F4807F02D04FF4007323646A
:10334000032005B0F0BD039023685A6903929B697E
:103350000393039B0B9A0A992046FFF72FFF80B92E
:10336000012F19D12368F2B21A610B9A0A992046EB
:10337000FFF724FF00282DD0236C042B24D001203C
:10338000DFE7236C042B01D00120DAE72268136801
:1033900043F400731360F7E7330A226813610B9A52
:1033A0000A992046FFF70AFF18B92268F3B21361A1
:1033B000DBE7236C042B01D00120C2E722681368ED
:1033C00043F400731360F7E72268136843F4007353
:1033D0001360D4E72268136843F4807313600B9B77
:1033E00000930A9B02464FF001112046FFF727FE8B
:1033F00070B9226845F00103DBB213610B9B0A9A96
:1034000008492046FFF770FE00289AD0012098E76F
:1034100023681B6813F4807F02D04FF40073236489
:1034200003208EE70200010070B504460D461646E3
:1034300023685B6913F0040F21D12046FFF7E6FDF6
:10344000F8B9B5F1FF3FF3D0FEF758FB801BA84257
:1034500001D8002DECD123685B6913F0040FE7D18C
:1034600000232363202284F83D2084F83E30226C20
:1034700042F02002226484F83C30012000E0002069
:1034800070BD0120FCE770B504460D46164614E0F9
:103490006FF010025A6100232363202284F83D203C
:1034A00084F83E30226C226484F83C30012025E010
:1034B00023685B6913F0400F10D02368586910F03F
:1034C000400F1AD1586910F0100FE1D1FEF716FB2A
:1034D000801BA842ECD8002DEFD1E9E7002323633D
:1034E000202284F83D2084F83E30226C42F02002F5
:1034F000226484F83C30012000E0002070BD000010
:10350000002800F0DA8038B5044690F83D30002BF2
:1035100051D0242384F83D302268136823F001033E
:1035200013602268136843F4004313602268136831
:1035300023F400431360FDF72BFF6268614B9A424E
:103540003ED8614B98428CBF00230123002B40F0F2
:10355000B6805E49A1FB00318B0CD4F800C0DCF8CA
:10356000042022F03F0242EA9142CCF80420216874
:103570000A6A22F03F02DFF84CC16568654525D82C
:10358000013313430B622168CA6922F44F4222F0CF
:10359000FF02D4F804C04B4B9C4522D8431E4FEA8F
:1035A0004C0CB3FBFCF3013340F6FC70034254D0E7
:1035B000C3F30B0352E080F83C30FFF73FFBA8E772
:1035C000434B98428CBF00230123BFE74FF4967C06
:1035D0000CFB03F3DFF8FCC0ACFB03C39B09013316
:1035E000CFE7D4F808E0BEF1000F1AD1431E0CEB70
:1035F0004C05B3FBF5F30133C3F30B03B3FA83F3C9
:103600005B09002B57D1BEF1000F19D1431E0CEB03
:103610004C0CB3FBFCF30133C3F30B0343F4004343
:103620001CE00CEB8C0303EB83031D46431EB3FB32
:10363000F5F30133C3F30B03B3FA83F35B09E0E75C
:10364000431E0CEB8C0C0CEB8C0CB3FBFCF301332A
:10365000C3F30B0343F4404300E004231A43CA615D
:1036600021680B6823F0C003E269206A0243134318
:103670000B6021688B6823F4034323F0FF03226966
:10368000E068024313438B602168CB6823F0FF039B
:103690006269A06902431343CB602268136843F058
:1036A0000103136000202064202384F83D30206350
:1036B00084F83E0038BD0123D0E701207047012087
:1036C000F8E700BFA08601007F841E0083DE1B4355
:1036D000FF083D00D34D62102DE9F04182B0044651
:1036E0000E4617469846FEF709FA94F83D20202A20
:1036F00003D0022002B0BDE8F081054600901923F6
:1037000001224C492046FFF79AFC002840F08B80AC
:1037100094F83C30012B00F08880012384F83C3081
:1037200023681A6812F0010F03D11A6842F00102EF
:103730001A602268136823F400631360212384F85D
:103740003D30402384F83E3000232364089B6362AD
:10375000BDF824306385638D2385374BE362019583
:103760000A9B009343463A4631462046FFF756FDF2
:1037700000285CD1238D002B36D02A460A9920469A
:10378000FFF71CFD002824D1626A236812781A61B1
:10379000626A531C6362218D013989B22185638D70
:1037A0009BB2013B9BB263852368586910F0040FFC
:1037B000E0D00029DED052781A61636A0133636277
:1037C000238D013B2385638D9BB2013B9BB26385B7
:1037D000D0E7236C042B01D001208BE7226813680B
:1037E00043F400731360F7E72A460A992046FFF76F
:1037F0001BFE50B1236C042B01D001207AE7226814
:10380000136843F400731360F7E72268136843F406
:1038100000731360202384F83D30002384F83E3089
:1038200084F83C3066E7022064E7022062E701206A
:1038300060E700BF020010000000FFFF2DE9F04329
:1038400087B004460F4690469946109EFEF756F9FB
:1038500094F83D20202A05D002231F46384607B0A1
:10386000BDE8F083054600901923012288492046CF
:10387000FFF7E5FB002840F04D8194F83C30012B28
:1038800000F04B81012384F83C3023681A6812F061
:10389000010F03D11A6842F001021A60226813680E
:1038A00023F400631360222384F83D30402384F81E
:1038B0003E30002323640E9B6362BDF83C30638579
:1038C000638D2385734BE362019500964B46424618
:1038D00039462046FFF706FD0746002840F02081C4
:1038E000238D5BB9029323685A6902929A69029206
:1038F000029A1A6842F400721A6075E0012B0AD02D
:10390000022B1AD00023059323685A6905929B69FC
:103910000593059B68E02268136823F480631360B5
:103920000023039323685A6903929A690392039AC6
:103930001A6842F400721A6056E02268136823F491
:10394000806313602268136843F4006313600023EC
:10395000049323685A6904929B690493049B43E08F
:103960002A4631462046FFF78EFD002840F0DB80D6
:1039700023681A69636A1A70636A01336362238D6C
:10398000013B2385638D9BB2013B9BB263852BE09A
:1039900000953346002240492046FFF750FB00289F
:1039A00040F0C4802268136843F4007313602368F6
:1039B0001A69636A1A70626A531C6362238D013B41
:1039C0002385638D9BB2013B9BB2638523681B6992
:1039D0005370636A01336362238D013B2385638DDA
:1039E0009BB2013B9BB26385238D002B00F0898045
:1039F000032B53D8012BB3D0022BC9D000953346EB
:103A0000002225492046FFF71AFB002840F091804C
:103A10002268136823F48063136023681A69636A59
:103A20001A70636A01336362238D013B2385638DC2
:103A30009BB2013B9BB26385009533460246164913
:103A40002046FFF7FCFA002876D12268136843F479
:103A50000073136023681A69636A1A70626A531CE0
:103A60006362238D013B2385638D9BB2013B9BB237
:103A7000638523681B695370636A01336362238D16
:103A8000013B2385638D9BB2013B9BB26385ABE712
:103A9000020010000000FFFF040001002A4631462A
:103AA0002046FFF7F0FC002849D123681A69636AB1
:103AB0001A70636A01336362228D013A92B22285E1
:103AC000638D9BB2013B9BB263852368596911F0FA
:103AD000040F89D0032A0FD023681A69636A1A7009
:103AE000636A01336362238D013B2385638D9BB23F
:103AF000013B9BB2638577E71A6822F480621A6003
:103B0000EAE7202384F83D30002384F83E3084F82F
:103B10003C30A3E602231F46A0E602231F469DE693
:103B200001231F469AE601231F4697E601231F46FD
:103B300094E601231F4691E601231F468EE60123EA
:103B40001F468BE600B583B000210191094B1A6B2B
:103B500042F480021A631B6B03F480030193019B00
:103B60000A463820FDF756FF3820FDF763FF03B003
:103B700000BD00BF0038024008B564238AB2014688
:103B80000148FEF74DFF08BDC80100200FB410B575
:103B900082B004AB53F8042B0193094C4FF48071AD
:103BA000204600F03DFA2046FCF7F2FA01460A22D0
:103BB0002046FFF7E1FF02B0BDE8104004B07047B7
:103BC0005403002010B58AB0002305930693012208
:103BD000079200930193029303930492089269461B
:103BE0001948FCF707FED0B9174B022283F82020B2
:103BF000164A136823F001031360FDF77FFF0446A4
:103C0000124B5B6813F0010F0ED0FDF777FF001B1E
:103C1000B0F57A7FF4D90E48FFF7B8FF02E00D48FF
:103C2000FFF7B4FF0AB010BD10210748FCF74DFFA5
:103C3000094B4FF480721A6000225A609A60DA6071
:103C4000082119611A75EDE7780000200064004032
:103C5000B84B0008944B00087405002008B5064BCB
:103C6000064A0121FCF764FE18B9054B01221A70BF
:103C700008BDFCF745FBF8E7540400205805002078
:103C80005405002000B587B002468DF81710642354
:103C90000293012301930DF117010091D0210248F5
:103CA000FFF71AFD07B000BD0003002000B585B086
:103CB000642302930192009101230246D02102481D
:103CC000FFF7BCFD05B000BD0003002008B51420BF
:103CD000FDF71AFF00216B20FFF7D4FF0721192001
:103CE000FFF7D0FF06211A20FFF7CCFF01211C208F
:103CF000FFF7C8FF18211B20FFF7C4FF08BD10B550
:103D000082B00446062269463B20FFF7CFFF9DF8AC
:103D100000209DF8013043EA022323809DF8022011
:103D20009DF8033043EA022363809DF804209DF848
:103D3000053043EA0223A38002B010BD10B582B063
:103D40000446062269464320FFF7B0FF9DF8002095
:103D50009DF8013043EA022323809DF802209DF85C
:103D6000033043EA022363809DF804209DF8053068
:103D700043EA0223A38002B010BD000010B50B4639
:103D8000012909D000210C46022B0CD098B1012842
:103D90001BD0022823D010BD4FF480731C46802115
:103DA000DFF850C0F2E74FF400731C464FF4807107
:103DB000DFF844C0EAE701226046FDF70DFC01226E
:103DC00021460C48FDF708FCE5E701226046FDF7B7
:103DD00003FC002221460748FDF7FEFBDBE700223B
:103DE0006046FDF7F9FB012221460248FDF7F4FB8E
:103DF000D1E700BF000802400000024008B50121E1
:103E00000846FFF7BBFF02210120FFF7B7FF04219F
:103E10000348FEF7EFFA00210248FEF7EBFA08BD6F
:103E200080010020A8000020DFF834D0FDF780FEDC
:103E30000C480D490D4A002302E0D458C450043305
:103E4000C4188C42F9D30A4A0A4C002301E01360DB
:103E50000432A242FBD300F00FF9FCF7A5FA704739
:103E600000000220000000205C0000203C4C000804
:103E70005C000020D4060020FEE7000070B50F4C67
:103E80000E462168054611B900F0E0F82060314681
:103E9000284600F0DBF8431C03D14FF0FF342046E6
:103EA00070BDC41C24F00304A042F8D0211A284697
:103EB00000F0CCF80130F2D1EFE700BF8C05002014
:103EC0002DE9F843CD1C25F0030508350C2D38BF2E
:103ED0000C25002D064601DBA94204D90C233360D2
:103EE0000020BDE8F883334F00F066F83B681C46BD
:103EF0003CBB29463046FFF7C1FF431C044656D160
:103F00003C68A046B8F1000F40D1002C49D023688E
:103F10004146304604EB030900F098F8814540D152
:103F200021686D1A29463046FFF7A8FF013038D0C6
:103F300023682B4423603B685A685ABBC7F800804B
:103F40000EE02268521B1ED40B2A16D96119A34217
:103F5000256018BF5960636808BF396062514B60C3
:103F6000304600F02FF804F10B00231D20F007006D
:103F7000C21A1CBF1B1AA350B3E76268A3420CBF4E
:103F80003A605A60ECE723466468B1E74446D8F8E3
:103F90000480B7E71A465B68A342FBD10023536055
:103FA000DEE70C233360304600F00CF898E705603C
:103FB000D6E700BF90050020014800F081B800BF9F
:103FC000D0060020014800F07CB800BFD0060020D9
:103FD00030B5141E9BB005461A4605DA8B230360E4
:103FE0004FF0FF301BB030BD4FF00003199318BFE6
:103FF0000123E31A02930593084B00910491039364
:1040000069461E9B00F018F9431CBCBF8B232B6034
:10401000002CE7D0009B00221A70E3E70802FFFFA4
:1040200007B5009313460A46014603480068FFF7A8
:10403000CFFF03B000BD00BF0C00002002440346C8
:10404000934200D1704703F8011BF9E738B5064CDD
:104050000023054608462360FDF774FD431C02D18A
:10406000236803B12B6038BDCC060020014B1868D3
:10407000704700BF0C00002070B50D4B0D4C0026A2
:104080001D1BB6EBA50F09D100F04EFD0A4C0B4BE2
:1040900000261D1BB6EBA50F05D170BD54F8043BDF
:1040A00098470136EDE754F8043B98470136F1E7AD
:1040B000344C0008344C0008344C0008384C0008DC
:1040C000704770470A44914200F1FF3300D17047B6
:1040D00010B511F8014B03F8014F9142F9D110BD11
:1040E00037B5002944D051F8043C0190002BA1F1D0
:1040F0000404B8BFE418FFF75FFF1E4A0198136875
:1041000033B96360146003B0BDE83040FFF75ABFB5
:10411000A34208D9256861198B4201BF19685B6801
:1041200049192160EDE71A465B680BB1A342FAD941
:1041300011685518A5420BD1246821445418A34294
:104140001160E0D11C685B6853600C441460DAE7CE
:1041500002D90C230360D6E7256861198B4204BF9E
:1041600019685B68636004BF491921605460CAE73D
:1041700003B030BD900500202DE9F0478E681F4642
:10418000BE4282460C469046334653D8B1F90C00E5
:1041900010F4906F2BD065692368096905EB45051C
:1041A000A3EB010905EBD5757B1C6D104B44AB42AD
:1041B0002A4684BF1D462A46430527D51146504648
:1041C000FFF77EFE064658B321694A46FFF77AFF9D
:1041D000A38923F4906343F08003A3812661656182
:1041E0004E44A5EB09052660A5603E463B461F46AA
:1041F00020683A46414600F0B7FAA3689B1BA360CB
:1042000023683B4423600020BDE8F087504600F05F
:10421000C4FA06460028E1D121695046FFF760FF45
:104220000C23CAF80030A38943F04003A3814FF068
:10423000FF30E9E73E46DBE72DE9F0471F468B8973
:104240001B069CB006460D46144610D50B6973B983
:104250004021FFF735FE2860286130B90C23336018
:104260004FF0FF301CB0BDE8F08740236B610023A6
:10427000099320238DF8293003973023654F8DF85B
:104280002A304FF0010823461A7899461AB1252A98
:1042900003F10103F8D1B9EB040A0BD053462246CF
:1042A00029463046FFF768FF013000F0A380099AE5
:1042B0005244099299F80030002B00F09B800022B4
:1042C0004FF0FF33CDE9053209F10109049207925D
:1042D0008DF853201A924C46052214F8011B4D48C4
:1042E000FBF75EFF049AD0B9D00644BF20238DF8B7
:1042F0005330110744BF2B238DF8533099F8003009
:104300002A2B13D007994B4600204FF00A0C1A783D
:10431000303A092A1C464AD9A8B1079113E0C01BBC
:1043200008FA00F010430490A146D4E7039B191D3E
:104330001B680391002BBBBF5B4242F00202079354
:104340000793B8BF049223782E2B0AD163782A2BC7
:1043500032D1039B1A1D1B68039243EAE3730234B4
:104360000593DFF8C090217803224846FBF718FF39
:1043700038B1049BA0EB0900402282401343013472
:104380000493217824488DF828100622FBF708FFB3
:10439000002835D0214818BB039B073323F00703BF
:1043A00008330393099B0344013409936BE70133FA
:1043B0000CFB01210120AAE700230593611C18468C
:1043C0004FF00A0C0A78303A092A0C4603D9002B20
:1043D000C7D00590C5E701310CFB00200123F1E7B0
:1043E00003AB00932A460E4B04A93046AFF300807E
:1043F000421CD7D1AB895B063FF532AF099831E754
:1044000003AB00932A46064B04A9304600F082F81D
:10441000EEE700BFF84B0008024C00080000000067
:1044200079410008FE4B00082DE9F0479146984677
:104430008A680B69089E9342B8BF1346C9F80030DA
:1044400091F8432007460C4612B10133C9F80030F9
:104450002368990642BFD9F800300233C9F800300A
:10446000256815F0060507D104F1190AE368D9F8A3
:1044700000209B1AAB4229DC94F843302268003BB1
:1044800018BF012392062ED404F143024146384658
:10449000B047013021D02368A168226903F00603E8
:1044A000042B01BFE568D9F80030ED1A25EAE5755F
:1044B00018BF00258B1A2B449142C8BF1D464FF0F0
:1044C00000091A344D451AD1002008E00123524654
:1044D00041463846B047013003D14FF0FF30BDE8C8
:1044E000F0870135C2E7E1185A1C302081F84300FB
:1044F000224494F8451082F843100233C4E70123A4
:10450000224641463846B0470130E6D009F101095C
:10451000D8E700002DE9F04398460B7E85B0782B54
:10452000174606460C9A0C4609D8622B01F1430146
:1045300008D8002B00F0DC80582B00F0BD8004F17F
:10454000420539E0A3F163001528F8D801A555F814
:1045500020F000BFAD450008C14500083F450008F8
:104560003F4500083F4500083F450008C145000899
:104570003F4500083F4500083F4500083F4500080B
:10458000D1460008ED4500087F4600083F45000879
:104590003F450008F94600083F450008ED45000882
:1045A0003F4500083F450008874600081368191D6D
:1045B0001B68116004F1420584F842300123A8E031
:1045C00013682568181D1060280601D51B6803E0D4
:1045D0006A06FBD5B3F90030002B03DA2D225B42CB
:1045E00084F84320DFF878C10A2213E025681068B8
:1045F00015F0800F50F8043B02D16D0648BF9BB206
:104600001060227EDFF858C16F2A5DD10822002099
:1046100084F843006568A560002D05DB20681D4314
:1046200020F00400206051D00D46B3FBF2F002FBF5
:10463000103E9A421CF80EE005F801ED0346F4D94D
:10464000082A0BD12368DA0708D5236962689A42E1
:10465000DEBF302305F8013C05F1FF35491B216120
:10466000CDF800803B4603AA21463046FFF7DCFE2A
:10467000013053D14FF0FF3005B0BDE8F08323681F
:1046800043F020032360DFF8DCC0782384F8453052
:104690002068156810F0800F55F8043B03D110F026
:1046A000400F18BF9BB21560C50744BF40F0200003
:1046B000206023B11022AAE7DFF8A4C0E6E7226851
:1046C00022F020022260F5E70A22A0E70D46B7E7B4
:1046D0001368D4F800C060691D1D15601CF0800FC0
:1046E0001B6801D0186003E01CF0400FFAD018805E
:1046F000002323610D46B3E71368191D11601D687F
:10470000626800212846FBF74BFD08B1401B606042
:1047100063682361002384F84330A1E723692A46B4
:1047200039463046C0470130A4D023689B0714D4D3
:10473000E068039B9842B8BF18469DE7012304F147
:10474000190239463046C047013093D00135E3683D
:1047500003995B1AAB42F1DCEAE70025F7E700BFFB
:10476000094C00081A4C0008884210B501EB0204FD
:1047700002D98442234607D8431EA14207D011F82C
:10478000012B03F8012FF8E70244824200D110BD4B
:1047900013F8011D02F8011DF7E72DE9F041074666
:1047A00015460C4621B9BDE8F0411146FFF788BB1C
:1047B0002AB9FFF795FC2C462046BDE8F08100F0B1
:1047C0001AF88542064602D8B5EB500FF4D82946B0
:1047D0003846FFF775FB804608B94446ECE7B5421A
:1047E0002A46214628BF3246FFF76CFC2146384650
:1047F000FFF776FCF1E751F8043C181F002BBCBF13
:104800000B58C018704700002DE9F04782B00646EB
:10481000DDF828E00846B4460D46002B4ED18A420A
:1048200014466DD9B2FA82F242B1C2F1200395402A
:1048300026FA03F394401D4306FA02FC260CA7B2A5
:10484000B5FBF6F14FEA1C4306FB115543EA05435D
:1048500001FB07F0984209D9E31801F1FF3580F018
:104860000381984240F20081023923441B1A1FFA47
:104870008CFCB3FBF6F006FB10334CEA034C00FB58
:1048800007F363450AD914EB0C0C00F1FF3580F0F7
:10489000ED80634540F2EA80A444023840EA0140DA
:1048A000ACEB030C0021BEF1000F04D02CFA02F394
:1048B0000022CEE9003202B0BDE8F0878B4209D970
:1048C000BEF1000F01D0CEE900610021084602B020
:1048D000BDE8F087B3FA83F1174600294DD1834232
:1048E00002D3B24200F20F81B6EB070C60EB030378
:1048F00001201D46BEF1000FDDD0CEE900C5DAE78C
:10490000002A00F098801A46B4FA84F3002B40F095
:10491000AF800B1B270CA6B20121B3FBF7F54FEAC2
:104920001C4007FB153340EA034306FB05F8984596
:1049300007D9E31805F1FF3002D2984500F2E8806C
:104940000546A3EB08031FFA8CFCB3FBF7F007FB4B
:1049500010334CEA034C06FB00F3634508D914EB13
:104960000C0C00F1FF3602D2634500F2CE803046D7
:10497000ACEB030C40EA054095E7C1F120058B4004
:1049800022FA05FC4CEA030C00FA01F426FA05F3BE
:10499000E84002FA01F943EA04084FEA1C4206FA29
:1049A00001FAB0FBF2F71FFA8CF602FB17004FEA90
:1049B000184444EA004407FB06F0A0420AD91CEB65
:1049C000040407F1FF3380F09C80A04240F29980FC
:1049D000023F6444241A1FFA88F3B4FBF2F002FB8E
:1049E000104443EA044300FB06F69E4209D91CEB3F
:1049F000030300F1FF3480F082809E427FD90238A9
:104A0000634440EA0740A0FB09749B1BA3423E4657
:104A1000A04664D361D0BEF1000F0AD0BAEB060203
:104A200063EB080303FA05F5CA401543CB40CEE912
:104A3000005300213FE7730843EAC1734A08190C89
:104A400041EA02414FEAC67C9BB2B2FBF4F0264633
:104A5000A04627461F2243EA0143B1FBF4F1A3EB32
:104A6000080341EA004158E72946FFE6284615E7D2
:104A70001A46C3F120019C4026FA01F320FA01F105
:104A800090400343270C06FA02FCB1FBF7F0A6B2F4
:104A900007FB1015190C41EA054100FB06F58D4294
:104AA0003BD9611801D28D4220D8491B0138B1FB96
:104AB000F7F5019505FB06F8019D9BB207FB151163
:104AC00043EA0143434526D2E31805F1FF31C6D23C
:104AD0004345C4D2A91E2344C1E7BA459BD2B7EBD4
:104AE000090664EB0C040138A04694E7651B2944D1
:104AF0000238B1FBF7F5019505FB06F8DCE7204627
:104B00007FE71F4666E70846F4E6A44402382FE72D
:104B1000023D234415E70199A1E7491BB1FBF7F5D5
:104B2000019505FB06F8C7E7F8B500BFF8BC08BC5F
:104B30009E467047F8B500BFF8BC08BC9E4670475B
:104B400043414E20746573742073746172740D0A4E
:104B5000000000006163633A20783D25642C2079D1
:104B60003D25642C207A3D25640D0A006779726F1B
:104B70003A20783D25642C20793D25642C207A3D0F
:104B800025640D0A000000003031323334353637E9
:104B9000000000004661696C656420746F20636FDB
:104BA0006E6669677572652043414E2066696C7454
:104BB00065720D0A00000000202054494D454F55F4
:104BC000542120494E414B207374696C6C207365ED
:104BD000742E0D0A000000000006101600061016C4
:104BE00000000000010203040000000000000000BB
:104BF0000102030406070809232D302B2000686CEE
:104C00004C006566674546470030313233343536EF
:104C10003738394142434445460030313233343528
:0C4C200036373839616263646566000055
:084C2C0064B5FF7F01000000E8
:044C3400DD02000895
:044C3800B5020008B9
:104C3C0001000000100000000024F400100000200F
:104C4C000000000094050020FC05002064060020F4
:104C5C000000000000000000000000000000000048
:104C6C000000000000000000000000000000000038
:104C7C000000000000000000000000000000000028
:0C4C8C000000000000000000000000001C
:0400000508003E2988
:00000001FF
