:020000040800F2
:1000000000000220452000080D0700080F07000827
:10001000110700081307000815070008000000007A
:1000200000000000000000000000000017070008AA
:1000300019070008000000001B0700081D07000842
:1000400095200008952000089520000895200008BC
:1000500095200008952000089520000895200008AC
:10006000952000089520000895200008952000089C
:10007000952000089520000895200008952000088C
:10008000952000089520000895200008952000087C
:1000900095200008250700089520000895200008F5
:1000A000952000089520000895200008952000085C
:1000B000952000089520000895200008952000084C
:1000C000952000089520000895200008952000083C
:1000D000952000089520000895200008952000082C
:1000E000952000089520000895200008952000081C
:1000F000952000089520000895200008952000080C
:1001000095200008952000089520000895200008FB
:1001100095200008952000089520000895200008EB
:1001200095200008952000089520000895200008DB
:1001300095200008952000089520000895200008CB
:1001400095200008952000089520000895200008BB
:1001500095200008952000089520000895200008AB
:10016000952000089520000895200008952000089B
:100170009520000895200008952000080000000048
:080180009520000895200008FD
:10019000034613F8012B002AFBD1181A01387047C7
:1001A00001F0FF01102A2BDB10F0070F08D010F828
:1001B000013B013A8B422DD010F0070F42B3F6D12C
:1001C000F0B441EA012141EA014122F007047FF045
:1001D00000070023F0E80256083C85EA010586EA9C
:1001E000010685FA47F5A3FA87F586FA47F6A5FAD8
:1001F00087F68EB9EED1F0BC01F0FF0102F00702E4
:1002000032B110F8013B013A83EA010313B1F8D18E
:100210000020704701387047002D06BF354603386F
:10022000073815F0010F07D1013015F4807F02BFA8
:10023000013015F4C03F0130F0BC0138704700BFF9
:1002400053B94AB9002908BF00281CBF4FF0FF313D
:100250004FF0FF3000F00CB8ADF1080C6DE904CEA2
:1002600002F0CCFBDDF804E0DDE9022304B07047C6
:10027000704700BF0348044B834202D0034B03B1D5
:10028000184770475C0000205C0000200000000060
:100290000548064B1B1AD90F01EBA301491002D0E8
:1002A000034B03B1184770475C0000205C0000203E
:1002B0000000000010B5064C237843B9FFF7DAFFC1
:1002C000044B13B10448AFF300800123237010BD29
:1002D0005C000020000000001C2D000808B5054B44
:1002E0001BB105490548AFF30080BDE80840FFF7A2
:1002F000CFBF00BF00000000600000201C2D0008E0
:1003000010B50446FFF744FF642382B22146024839
:1003100001F032FE10BD00BFBC01002010B5024646
:100320000B46044C0449204601F0B6FE2046FFF778
:10033000E7FF10BD78000020342D0008F0B583B031
:10034000144B1C685D689E69DF69D3F80022009237
:100350009B6801931048FFF7D3FF21460F48FFF732
:10036000DDFF29460E48FFF7D9FF31460D48FFF75C
:10037000D5FF39460C48FFF7D1FF00990B48FFF72E
:10038000CDFF01990A48FFF7C9FF0A48FFF7B8FFF8
:1003900003B0F0BD00640040442D0008582D000853
:1003A000602D0008682D0008702D0008782D0008C9
:1003B000802D0008882D000810B58AB02448FFF76A
:1003C0009FFFFFF7BBFF00230593069301220792CF
:1003D00000930193029303930493089269461D4886
:1003E00000F06AFAE0B91B4B022283F820201A4A77
:1003F000136823F00103136001F092FA0446164BD0
:100400005B6813F0010F10D001F08AFA001BB0F501
:100410007A7FF4D91148FFF773FFFFF78FFF02E0EF
:100420000F48FFF76DFF0AB010BD0E48FFF768FFD9
:100430000D4B4FF480721A6000225A609A60DA60A5
:10044000082119611A750948FFF75AFFEBE700BF49
:10045000982D00084401002000640040D02D0008C1
:10046000B82D0008F02D00082C010020102E0008E7
:1004700072B6FEE708B5064B064A002100F03DFBC8
:1004800018B9054B01221A7008BDFFF7F1FF00BF34
:10049000FC00002010010020F800002010B594B0EE
:1004A00008AC30220021204601F018FE00230393FF
:1004B000049305930693079301931F4A116C41F02F
:1004C00080511164126C02F080520192019A0293E1
:1004D0001A4B1A6842F480421A601B6803F4804386
:1004E0000293029B012308934FF480330993022265
:1004F0000E924FF480030F9304231093A8211191BF
:1005000012921393204600F0F3FC88B90F23039353
:100510000223049305904FF4A05306934FF48053A5
:100520000793052103A800F04FFF18B914B010BDC0
:10053000FFF79EFFFFF79CFF00380240007000406D
:1005400000B583B001F0C6F9FFF7A8FF00F034F85A
:1005500000F070F801F02EFA01F096FBFFF72CFF87
:100560000E4B93E8030002AB03E903000C4B6A4611
:100570000C490D4800F03EFA4FF47A7001F0D6F9BC
:100580000A4B1B78012BF1D164231022084909483A
:1005900001F0F2FC054B00221A70E7E7342E000848
:1005A0000C0100202C01002044010020F800002054
:1005B000FC000020BC01002070B588B003AD002411
:1005C000039404940594069407940094174B1A6BB3
:1005D00042F080021A631A6B02F080020092009AC5
:1005E00001941A6B42F004021A631A6B02F00402BF
:1005F0000192019A02941A6B42F001021A631B6B7A
:1006000003F001030293029B094E2246012130466A
:1006100001F0B4F80123039304930594069429464A
:10062000304600F0A7FF08B070BD00BF00380240A0
:100630000008024008B50D480D4B036006234360D7
:1006400000238360C3604FF4003202614FF4001254
:100650004261037643768376C3760377437700F06F
:1006600085F800B908BDFFF703FFFBE74401002050
:1006700000640040F0B589B0002303930493059310
:100680000693079302681F4B9A4201D009B0F0BD50
:100690000024019403F5EA331A6C42F000721A64E4
:1006A0001A6C02F000720192019A02941A6B42F0E5
:1006B00001021A631B6B03F001030293029B4FF4C8
:1006C00000630393022504950123059303260696F0
:1006D0000927079703A90C4800F04CFF4FF48053FB
:1006E0000393049505940696079703A9064800F01E
:1006F00041FF22462146152001F09EF8152001F009
:10070000ABF8C3E70064004000000240FEE7FEE7EC
:10071000FEE7FEE7FEE770477047704708B501F057
:10072000F3F808BD08B5024800F0C0FA08BD00BFE4
:100730004401002082B0002100910B4B5A6C42F41E
:1007400080425A645A6C02F480420092009A0191ED
:100750001A6C42F080521A641B6C03F080530193B0
:10076000019B02B0704700BF00380240002800F033
:10077000A18038B5044690F82030D3B122681368C0
:1007800043F00103136001F0CBF8054623685A6873
:1007900012F0010F10D101F0C3F8401B0A28F5D95F
:1007A000636A43F400336362052384F82030012038
:1007B00038BDFFF75FFFE1E71A6822F002021A6016
:1007C00001F0AEF8054623685A6812F0020F0DD00A
:1007D00001F0A6F8401B0A28F5D9636A43F40033F8
:1007E0006362052384F820300120E1E7227E012A9C
:1007F0003DD01A6822F080021A60637E012B3BD044
:100800002268136823F040031360A37E012B39D0C4
:100810002268136823F020031360E37E012B37D096
:100820002268136843F010031360237F012B35D037
:100830002268136823F008031360637F012B33D011
:100840002268136823F004031360A368E26813436B
:1008500022691343626913436268013A21681343B2
:10086000CB6100206062012384F82030A0E71A6881
:1008700042F080021A60C0E72268136843F0400328
:100880001360C2E72268136843F020031360C4E7D3
:100890002268136823F010031360C6E72268136808
:1008A00043F008031360C8E72268136843F00403A9
:1008B0001360CAE70120704790F82030013BDBB29B
:1008C000012B05D9436A43F480234362012070471A
:1008D00010B5474BD3F8002242F00102C3F80022C2
:1008E000D3F8002222F47C52C3F80022D3F800226D
:1008F000486A42EA0022C3F800224A6902F01F0255
:10090000012000FA02F2D3F81C026FEA020C20EA7E
:100910000200C3F81C02CB69CBB9354BD3F80C02EB
:100920000CEA0000C3F80C02B1F804E04869CC6896
:100930004EEA044E483043F830E008888C6840EABC
:1009400004404C6904F1480E03EBCE035860CB69B8
:10095000012B1ED08B69002B35D12548D0F80432ED
:100960000CEA0303C0F804320B699BBB2048D0F8A3
:1009700014320CEA0303C0F814320B6A012B30D096
:100980001B4AD2F8003223F00103C2F800320020E3
:1009900010BD174BD3F80C021043C3F80C02B1F88A
:1009A00004E048690C684EEA044E483043F830E0F1
:1009B00088898C6840EA04404C6904F1480E03EBD6
:1009C000CE035860C6E70A48D0F804321343C0F893
:1009D0000432C9E70648D0F814321343C0F8143281
:1009E000CBE70349D1F81C321343C1F81C32C7E7E7
:1009F0000064004010B590F820E00468D4F808C006
:100A00000EF1FF3E5FFA8EFEBEF1010F6FD81CF0B3
:100A1000806F05D11CF0006F02D11CF0805F60D0A8
:100A2000CCF3016C4FF0010E0EFA0CFEC3F800E09F
:100A30008B68002B40D1CB680C6843EA445E0CF114
:100A400018031B01046844F803E003680CF1180E56
:100A500003EB0E130C695C600B7D012B39D0D1794F
:100A600093791B0443EA0163517943EA012392F825
:100A700004E0016843EA0E0301EB0C11C1F88C316C
:100A8000D17893781B0443EA0163517843EA012348
:100A9000117802680B4302EB0C12C2F8883102682D
:100AA0000CF1180C4FEA0C1C52F80C3043F0010307
:100AB00042F80C30002010BD4C6843EAC403CC68F7
:100AC00023430CF1180E4FEA0E1E046844F80E3052
:100AD000BBE7036803EB0E13596841F4807159605A
:100AE000BDE7436A43F4001343620120E3E7436A2E
:100AF00043F4802343620120DDE790F820C00CF12D
:100B0000FF3C5FFA8CFCBCF1010F00F2BD8010B518
:100B100059B90468D4F80CC01CF0030F11D1436A12
:100B200043F400134362012090E00468D4F810C03D
:100B30001CF0030F05D1436A43F400134362012004
:100B400084E001F11B0C4FEA0C1C046854F80CC043
:100B50000CF0040CC2F808C0BCF1000F77D101F111
:100B60001B0C4FEA0C1C046854F80CC04FEA5C5C88
:100B7000C2F800C001F11B0C4FEA0C1C046854F8C9
:100B80000CE00EF0020EC2F80CE0D0F800E0F444E5
:100B9000DCF804C01CF0080F65D04FF0080CC2F858
:100BA00010C001F11B0E046804EB0E1CDCF804C03D
:100BB000CCF3072CC2F818C0046804EB0E1CDCF858
:100BC00004C04FEA1C4CC2F814C0026802EB0112C8
:100BD000D2F8B8211A70026802EB0112D2F8B821DB
:100BE000C2F307225A70026802EB0112D2F8B82150
:100BF000C2F307429A70026802EB0112D2F8B821E0
:100C0000120EDA70026802EB0112D2F8BC211A71DE
:100C1000026802EB0112D2F8BC21C2F307225A711A
:100C2000026802EB0112D2F8BC21C2F307429A71AA
:100C3000026802EB0112D2F8BC21120EDA71E9B996
:100C40000268D36843F02003D360002010BD01F197
:100C50001B0C4FEA0C1C046854F80CC04FEADC0C67
:100C6000C2F804C086E701F11B0C0EEB0C1EDEF887
:100C700004C00CF00F0CC2F810C092E702681369B0
:100C800043F020031361E0E7436A43F480234362A7
:100C90000120704770477047704770477047704732
:100CA0007047704770477047704770472DE9F84F9D
:100CB000054603685C69D3F804809F68DA6891464A
:100CC0001A6992469A69934614F001063BD017F0D0
:100CD000010616D001229A6017F0020F08D117F012
:100CE000040F0CD117F0080606D04FF4805608E028
:100CF000FFF7D0FF002604E0FFF7CFFF01E04FF43D
:100D0000006617F4807F0DD02B684FF480729A60D4
:100D100017F4007F40F0928017F4806F00F092800B
:100D200046F4005617F4803F0DD02B684FF4803204
:100D30009A6017F4003F40F08F8017F4802F00F086
:100D40008F8046F4004614F0080F07D019F0100FFA
:100D500004D046F400762B681022DA6014F0040FF9
:100D600003D019F0080F40F0858014F0020F05D071
:100D70002B68DB6813F0030F40F0838014F0400F02
:100D800007D01AF0100F04D046F480662B681022AA
:100D90001A6114F0200F02D01AF0080F75D114F068
:100DA000100F04D02B681B6913F0030F74D114F4D7
:100DB000003F02D018F0100F72D114F4803F02D01F
:100DC00018F0080F73D114F4004F33D018F0040F4B
:100DD0002DD014F4807F04D01BF0010F01D046F019
:100DE000010614F4007F04D01BF0020F01D046F07E
:100DF000020614F4806F04D01BF0040F01D046F0FB
:100E0000040614F4006F12D01BF070030FD0402BB7
:100E100061D053D8202B58D0302B59D0102B01D172
:100E200046F008062A68936923F0700393612B68E3
:100E300004225A60002E54D1BDE8F88F2846FFF7EF
:100E40002AFF6FE717F4006F02D046F4804669E787
:100E50002846FFF723FF65E72846FFF71DFF72E7E7
:100E600017F4002F02D046F480366CE72846FFF7CF
:100E700016FF68E72B680822DA602846FFF710FFA4
:100E800073E72846FFF7F6FA78E72B6808221A611D
:100E90002846FFF707FF82E72846FFF702FF86E7AD
:100EA0002B6810225A602846FFF7FDFE85E72B6865
:100EB00008225A602846FFF7F7FE84E7502B0DD032
:100EC000602BAFD146F48076ACE746F01006A9E778
:100ED00046F02006A6E746F04006A3E746F0800667
:100EE000A0E76B6A33436B622846FFF7DEFEA3E799
:100EF000002800F0E28170B582B00446036813F068
:100F0000010F3BD09B4B9B6803F00C03042B2CD0B0
:100F1000984B9B6803F00C03082B21D06368B3F552
:100F2000803F4FD0B3F5A02F52D0924B1A6822F4D5
:100F300080321A601A6822F480221A606368002BDB
:100F400050D000F0EDFC05468A4B1B6813F4003FBF
:100F500014D100F0E5FC401B6428F5D90320B3E16F
:100F6000844B5B6813F4800FD8D0824B1B6813F45A
:100F7000003F03D06368002B00F0A181236813F0C9
:100F8000020F54D07B4B9B6813F00C0F3ED0794B73
:100F90009B6803F00C03082B33D0E368002B68D068
:100FA000754B01221A6000F0BBFC0546714B1B68B3
:100FB00013F0020F54D100F0B3FC401B0228F5D906
:100FC000032081E16B4A136843F480331360B5E773
:100FD000684B1A6842F480221A601A6842F4803220
:100FE0001A60ABE700F09CFC0546624B1B6813F4EB
:100FF000003FC3D000F094FC401B6428F5D90320C7
:1010000062E15C4B5B6813F4800FC6D1594B1B68DF
:1010100013F0020F03D0E368012B40F05281554AD0
:10102000136823F0F803216943EAC10313602368BE
:1010300013F0080F42D063696BB34F4B0122C3F822
:10104000802E00F06DFC05464A4B5B6F13F0020FDB
:1010500034D100F065FC401B0228F5D9032033E1B0
:10106000444A136823F0F803216943EAC10313607B
:10107000DDE7414B00221A6000F052FC05463D4B73
:101080001B6813F0020FD2D000F04AFC401B02286C
:10109000F5D9032018E1384B0022C3F8802E00F068
:1010A0003FFC0546334B5B6F13F0020F06D000F098
:1010B00037FC401B0228F5D9032005E1236813F013
:1010C000040F79D02B4B1B6C13F0805F34D10023BD
:1010D0000193284B1A6C42F080521A641B6C03F087
:1010E00080530193019B01231E46244B1B6813F47C
:1010F000807F24D0A368012B35D0052B40D01D4B19
:101100001A6F22F001021A671A6F22F004021A679E
:10111000A368002B3ED000F003FC0546154B1B6F67
:1011200013F0020F47D100F0FBFB401B41F2883364
:101130009842F3D90320C7E000231E46D5E70F4AA3
:10114000136843F48073136000F0EAFB05460B4B11
:101150001B6813F4807FCDD100F0E2FB401B022816
:10116000F5D90320B0E0034A136F43F0010313677E
:10117000CEE700BF00380240000047420070004048
:10118000584B1A6F42F004021A671A6F42F00102BC
:101190001A67BDE700F0C4FB0546524B1B6F13F006
:1011A000020F08D000F0BCFB401B41F2883398428C
:1011B000F3D9032088E0EEB9A369002B00F0838007
:1011C000484A926802F00C02082A51D0022B17D02C
:1011D000454B00221A6600F0A3FB0446414B1B68F6
:1011E00013F0007F42D000F09BFB001B0228F5D9D2
:1011F000032069E03B4A136C23F080531364DBE760
:10120000394B00221A6600F08BFB0546354B1B68F4
:1012100013F0007F06D000F083FB401B0228F5D9B5
:10122000032051E0E369226A1343626A43EA8213AE
:10123000A26A5208013A43EA0243E26A43EA0263BD
:10124000284A5360284B01221A6600F069FB0446C5
:10125000244B1B6813F0007F06D100F061FB001BDC
:101260000228F5D903202FE000202DE000202BE0FC
:10127000012B2BD01B4B5B6803F48001E269914288
:1012800026D103F03F02216A8A4223D1616A47F6E0
:10129000C0721A40B2EB811F1ED103F44031A26A22
:1012A0005208013AB1EB024F18D103F07063E26AC1
:1012B000B3EB026F14D1002006E00120704701203B
:1012C00002E0012000E0184602B070BD0120FBE7FB
:1012D0000120F9E70120F7E70120F5E70120F3E716
:1012E0000120F1E7003802400000474208B5334BC7
:1012F0009B6803F00C03042B5BD0082B5BD12F4BB6
:101300005A6802F03F025B6813F4800F2CD02B4B1D
:101310005868C0F388104FEA401CBCEB000C6EEB21
:101320000E0E4FEA8E1343EA9C634FEA8C11B1EB29
:101330000C0163EB0E03DB0043EA5173C90011EBB0
:10134000000C43F10003590200234FEA4C2041EA0C
:10135000DC51FEF775FF194B5B68C3F301430133A2
:101360005B00B0FBF3F008BD144B5868C0F3881065
:101370004FEA401CBCEB000C6EEB0E0E4FEA8E13D6
:1013800043EA9C634FEA8C11B1EB0C0163EB0E0353
:10139000DB0043EA5173C90011EB000C43F1000379
:1013A000990200234FEA8C2041EA9C51FEF748FF46
:1013B000D1E70348D7E70348D5E700BF003802402C
:1013C00000127A000024F400002800F09B8070B521
:1013D0000D4604464F4B1B6803F007038B4208D2AF
:1013E000CBB24C4A1370136803F007038B4240F0F2
:1013F0008B80236813F0020F17D013F0040F04D072
:10140000454A936843F4E0539360236813F0080F50
:1014100004D0414A936843F4604393603E4A936822
:1014200023F0F003A1680B439360236813F0010FCE
:1014300032D06368012B21D09A1E012A25D9364A61
:10144000126812F0020F61D033498A6822F0030259
:1014500013438B6000F064FA06462F4B9B6803F041
:101460000C036268B3EB820F16D000F059FA801BB0
:1014700041F288339842F0D9032042E0264A1268AC
:1014800012F4003FE0D101203BE0234A126812F041
:10149000007FD9D1012034E01E4B1B6803F0070305
:1014A000AB4207D9EAB21B4B1A701B6803F0070363
:1014B000AB422DD1236813F0040F06D0164A93686F
:1014C00023F4E053E1680B439360236813F0080FA3
:1014D00007D0114A936823F46043216943EAC103AA
:1014E0009360FFF703FF0C4B9B68C3F303130B4A96
:1014F000D35CD8400A4B18600A4B186800F0C4F956
:10150000002070BD012070470120FAE70120F8E7B4
:101510000120F6E7003C024000380240482E000857
:101520000800002004000020014B1868704700BF2D
:101530000800002008B5FFF7F7FF044B9B68C3F3D2
:101540008223034AD35CD84008BD00BF0038024064
:10155000402E000808B5FFF7E7FF044B9B68C3F374
:101560004233034AD35CD84008BD00BF0038024074
:10157000402E000870B582B08E46002369E0856871
:101580004FEA430C032101FA0CF125EA0105DEF8CC
:101590000C1001FA0CF129438160416821EA020133
:1015A000DEF80420C2F300129A400A43426065E06C
:1015B000D908083150F8212003F00705AD004FF09D
:1015C0000F0C0CFA05FC22EA0C0CDEF81020AA40E5
:1015D00042EA0C0240F8212067E0072200E00022E6
:1015E00002FA0CF22A430231604D45F82120604A8C
:1015F0009168E24321EA0405DEF8046016F4801FD6
:1016000001D044EA01055A498D60C96802EA010522
:10161000DEF8046016F4001F01D044EA01055449C5
:10162000CD60496802EA0105DEF8046016F4003F67
:1016300001D044EA01054E494D6009680A40DEF8D0
:10164000045015F4803F01D044EA010248490A6081
:1016500001330F2B00F2878001229A40DEF8001040
:1016600001EA020432EA0101F2D1DEF8041001F0CD
:10167000030C0CF1FF3CBCF1010F80D9DEF8042013
:1016800002F00302032A0AD0C1685D000322AA40C7
:1016900021EA0201DEF80820AA400A43C260DEF80F
:1016A000042002F00302022A82D001684FEA430CB0
:1016B000032202FA0CF221EA0201DEF8042002F011
:1016C000030202FA0CF20A430260DEF8042012F46C
:1016D000403FBDD000220192264A516C41F4804126
:1016E0005164526C02F480420192019A99088D1C57
:1016F0001E4A52F8255003F0030C4FEA8C0C0F22BF
:1017000002FA0CF225EA02051B4A90423FF467AF49
:1017100002F5806290421AD002F58062904218D0A1
:1017200002F58062904216D002F58062904214D099
:1017300002F58062904212D002F58062904210D091
:1017400002F5806290423FF448AF082248E7012248
:1017500046E7022244E7032242E7042240E705224B
:101760003EE706223CE702B070BD00BF00380140F2
:10177000003C014000380240000002400AB1816193
:101780007047090481617047002807DB00F01F02E1
:10179000400901239340024A42F82030704700BFBD
:1017A00000E100E0002808DB0901C9B200F1604057
:1017B00000F5614080F80013704700F00F00090148
:1017C000C9B2014B1954704714ED00E000B500F0A8
:1017D0000700A0F1030CBCF1040F07D8C0F1070EFD
:1017E0000430062806D84FF0000C03E04FF0040E3A
:1017F0004FF0000C4FF0FF3303FA0EF021EA000126
:1018000001FA0CF103FA0CF322EA030241EA0200A6
:1018100000BD0000074AD36823F4E0631B041B0CDF
:10182000000200F4E060034343F0BF6343F400337D
:10183000D360704700ED00E010B50446054BD86852
:10184000C0F30220FFF7C2FF01462046FFF7AAFFC0
:1018500010BD00BF00ED00E008B5FFF795FF08BD23
:101860000138B0F1807F0BD24FF0E0235861054A78
:10187000F02182F823100020986107221A61704736
:101880000120704700ED00E010B504460E4B1868CB
:101890000E4B1A784FF47A73B3FBF2F3B0FBF3F00C
:1018A000FFF7DEFF68B90F2C01D901200AE00246DC
:1018B00021464FF0FF30FFF7BFFF054B1C600020B3
:1018C00000E0012010BD00BF080000200000002043
:1018D0000400002008B50B4B1A6842F400721A602D
:1018E0001A6842F480621A601A6842F480721A60C0
:1018F0000320FFF78FFF0F20FFF7C6FFFEF71AFF49
:10190000002008BD003C0240034A1168034B1B78CD
:101910000B441360704700BF6C01002000000020E2
:10192000014B1868704700BF6C01002038B50446B1
:10193000FFF7F6FF0546B4F1FF3F02D0044B1B78DA
:101940001C44FFF7EDFF401BA042FAD338BD00BF97
:1019500000000020034AD2F8883043F47003C2F834
:101960008830704700ED00E008B503460D4A0E4987
:101970000E48006840B10D4800680344521A934273
:1019800008D80A4A136008BD0848DFF824C0C0F828
:1019900000C0F0E700F0AAFB0C2303604FF0FF301B
:1019A000F1E700BF000002200004000070010020E9
:1019B0005003002010B58CB003AC24220021204637
:1019C00000F08CFB00230193029311484FF08042FA
:1019D0000260436083604FF0FF32C2600361836145
:1019E0000123039305930993214600F0ADF848B90C
:1019F00000230193029301A9054800F0FFF820B9E4
:101A00000CB010BDFEF734FDF2E7FEF731FDF7E74D
:101A10007401002000B589B000230393049305935B
:101A2000069307930368B3F1804F01D009B000BD5E
:101A30000021019103F50E331A6C42F001021A6481
:101A40001A6C02F001020192019A02911A6B42F0A3
:101A500001021A631B6B03F001030293029B032331
:101A60000393022304930123079303A90148FFF77B
:101A700081FDDBE7000002400368324A904212D049
:101A8000B0F1804F0FD0A2F57C4290420BD002F50E
:101A90008062904207D002F58062904203D002F546
:101AA0007842904203D123F070034A681343254AD9
:101AB00090422AD0B0F1804F27D0A2F57C429042CC
:101AC00023D002F5806290421FD002F580629042DE
:101AD0001BD002F57842904217D002F57052904226
:101AE00013D002F5806290420FD002F580629042DE
:101AF0000BD0A2F59832904207D002F58062904256
:101B000003D002F58062904203D123F44073CA6887
:101B1000134323F080034A6913438A68C2620A6848
:101B20008262084A904203D002F58062904201D15D
:101B30000A690263026842F0040202600122426103
:101B40000360704700000140002855D070B50D4675
:101B5000044690F83D30002B49D0022384F83D30F4
:101B60002268936823F4804323F00703936021469F
:101B700051F8040BFFF780FF21688B688A69D1F860
:101B800020C02868184322F4407222F00302AB6898
:101B9000AE6943EA0623134323F47C4323F0FC039A
:101BA000EA68EE6942EA06221A432B6A1B032E6991
:101BB00043EA061313432CF0AA0C6A686D6942EAE3
:101BC000051242EA0C02886021688B6123681A6260
:101BD000012384F8463084F83E3084F83F3084F89E
:101BE000423084F8433084F83D30002070BD80F8E6
:101BF0003C30FFF70FFFB0E70120704790F83C2022
:101C0000012A3DD000B50346012280F83C20022283
:101C100080F83D2002685068D2F808E020F0700C8F
:101C2000086840EA0C0050601A68164882421AD0D0
:101C3000B2F1804F17D0A0F57C40824213D000F55E
:101C4000806082420FD000F5806082420BD000F5A8
:101C50007840824207D000F57050824203D0A0F550
:101C60009430824205D12EF0800E496841EA0E017F
:101C70009160012283F83D20002083F83C0000BDE4
:101C8000022070470000014008B50A480A4B036073
:101C90004FF4E133436000238360C36003610C228F
:101CA00042618361C36100F037F900B908BDFEF7F6
:101CB000DFFBFBE7BC0100200044004000B589B019
:101CC0000023039304930593069307930268144B30
:101CD0009A4201D009B000BD0021019103F5FA3309
:101CE0001A6C42F400321A641A6C02F40032019247
:101CF000019A02911A6B42F001021A631B6B03F006
:101D000001030293029B0C230393022304930323F6
:101D100006930723079303A90248FFF72BFCD9E793
:101D20000044004000000240026802F10C0353E846
:101D3000003F23F490730C3242E800310029F3D1C4
:101D4000026802F1140353E8003F23F00103143248
:101D500042E800310029F3D1036B012B05D0202389
:101D600080F84230002303637047026802F10C03DD
:101D700053E8003F23F010030C3242E80031002901
:101D8000F3D1ECE710B504460268136923F440531D
:101D9000C1680B431361836802691A4343691A439C
:101DA000C3691A430168CB6823F4164323F00C037C
:101DB0001343CB600268536923F4407381690B437A
:101DC00053610368314A934206D002F58062934220
:101DD00002D0FFF7AFFB01E0FFF7BCFBE369B3F50F
:101DE000004F29D00021031849411B1841F100017F
:101DF000C90041EA5371DB00181863684FEA830297
:101E00004FEA937341F10001FEF71AFA204AA2FB50
:101E100000314909642303FB11031B013233A2FB88
:101E200003235B0903F0F00202EB011203F00F033E
:101E3000216813448B6010BD0023021843EB03019B
:101E4000121841F10001C90041EA5271D200101884
:101E500041F10001626892185B41FEF7F1F90C4A0A
:101E6000A2FB00314909642303FB1103DB00323379
:101E7000A2FB03235B095A0002F4F87202EB011281
:101E800003F00703216813448B60D4E7001001407E
:101E90001F85EB512DE9F04182B004460D461646F0
:101EA0009846089F23681B6835EA03030CBF4FF070
:101EB000010C4FF0000CB44526D1B7F1FF3FF1D033
:101EC000FFF72EFD4346C01AB84221D817B3236846
:101ED000DA6812F0040FE5D0802DE3D0402DE1D078
:101EE0001A6812F0080FDDD0002501951A680192DA
:101EF0005B680193019B2046FFF716FF082363648C
:101F000084F84050012000E0002002B0BDE8F081DC
:101F10000320FAE70320F8E760B310B5044690F811
:101F2000413013B3242384F841302268D36823F46A
:101F30000053D3602046FFF725FF2268136923F47E
:101F4000904313612268536923F02A035361226886
:101F5000D36843F40053D36000206064202384F8E6
:101F6000413084F84230606310BD80F84030FFF7A4
:101F7000A5FED7E7012070472DE9F04184B01E4649
:101F800090F84130202B57D104460D46002957D0F8
:101F900003920AB9012050E000234364212380F812
:101FA0004130FFF7BDFC0746039BA384E384A3688D
:101FB000B3F5805F02D00023984616E023693BB357
:101FC0000023984611E0202384F84130032034E0B8
:101FD000424632F8023B90462268C3F3080353603E
:101FE000E28C92B2013A92B2E284E38C9BB293B15A
:101FF00000963B46002280212046FFF74BFF002839
:10200000E1D1002DE4D015F8012B23685A60E7E7F1
:10201000A8461D46E9E700963B460022402120469F
:10202000FFF738FF18B9202384F8413005E020235A
:1020300084F84130032000E0022004B0BDE8F081C4
:102040000120FAE7DFF834D0FFF784FC0C480D4993
:102050000D4A002302E0D458C4500433C4188C4203
:10206000F9D30A4A0A4C002301E013600432A24269
:10207000FBD300F041F8FEF763FA7047000002203E
:10208000000000205C0000209C2E00085C00002066
:102090004C030020FEE700000EB410B59DB01FAB4E
:1020A000029006906FF000410A48079104910A4996
:1020B00053F8042B0591002402A9006801931B9496
:1020C00000F096F9029B1C701DB0BDE8104003B0F3
:1020D000704700BF0C0000200802FFFF02440346C7
:1020E000934200D1704703F8011BF9E7014B1868D0
:1020F000704700BF0C00002070B50D4B0D4C002642
:102100001D1BB6EBA50F09D100F008FE0A4C0B4BC6
:1021100000261D1BB6EBA50F05D170BD54F8043B7E
:1021200098470136EDE754F8043B98470136F1E74C
:10213000942E0008942E0008942E0008982E000873
:102140007047704737B5002944D051F8043C0190DE
:10215000002BA1F10404B8BFE41800F0DDF81E4A1A
:102160000198136833B96360146003B0BDE8304070
:1021700000F0D8B8A34208D9256861198B4201BF85
:1021800019685B6849192160EDE71A465B680BB175
:10219000A342FAD911685518A5420BD124682144ED
:1021A0005418A3421160E0D11C685B6853600C4472
:1021B0001460DAE702D90C230360D6E725686119B9
:1021C0008B4204BF19685B68636004BF49192160D2
:1021D0005460CAE703B030BD4803002070B50F4C0F
:1021E0000E462168054611B900F0B4FB2060314667
:1021F000284600F0AFFB431C03D14FF0FF342046CC
:1022000070BDC41C24F00304A042F8D0211A284653
:1022100000F0A0FB0130F2D1EFE700BF4403002043
:102220002DE9F843CD1C25F0030508350C2D38BFEA
:102230000C25002D064601DBA94204D90C2333608E
:102240000020BDE8F883334F00F066F83B681C4679
:102250003CBB29463046FFF7C1FF431C044656D11C
:102260003C68A046B8F1000F40D1002C49D023684B
:102270004146304604EB030900F06CFB814540D138
:1022800021686D1A29463046FFF7A8FF013038D083
:1022900023682B4423603B685A685ABBC7F8008008
:1022A0000EE02268521B1ED40B2A16D96119A342D4
:1022B000256018BF5960636808BF396062514B6080
:1022C000304600F02FF804F10B00231D20F007002A
:1022D000C21A1CBF1B1AA350B3E76268A3420CBF0B
:1022E0003A605A60ECE723466468B1E74446D8F8A0
:1022F0000480B7E71A465B68A342FBD10023536012
:10230000DEE70C233360304600F00CF898E70560F8
:10231000D6E700BF480300200148FFF711BF00BF08
:10232000400300200148FFF70CBF00BF400300201E
:102330002DE9F0478E681F46BE4282460C46904605
:10234000334653D8B1F90C0010F4906F2BD0656967
:102350002368096905EB4505A3EB010905EBD57574
:102360007B1C6D104B44AB422A4684BF1D462A4657
:10237000430527D511465046FFF752FF064658B38E
:1023800021694A4600F0F6FAA38923F4906343F0EA
:102390008003A381266165614E44A5EB0905266093
:1023A000A5603E463B461F4620683A46414600F03F
:1023B000B7FAA3689B1BA36023683B4423600020FB
:1023C000BDE8F087504600F0E3FA06460028E1D168
:1023D00021695046FFF7B6FE0C23CAF80030A389E6
:1023E00043F04003A3814FF0FF30E9E73E46DBE7CF
:1023F0002DE9F0471F468B891B069CB006460D460B
:10240000144610D50B6973B94021FFF709FF286006
:10241000286130B90C2333604FF0FF301CB0BDE8A9
:10242000F08740236B610023099320238DF8293026
:1024300003973023654F8DF82A304FF0010823466B
:102440001A7899461AB1252A03F10103F8D1B9EB9C
:10245000040A0BD05346224629463046FFF768FF50
:10246000013000F0A380099A5244099299F8003093
:10247000002B00F09B8000224FF0FF33CDE90532A6
:1024800009F10109049207928DF853201A924C46E3
:10249000052214F8011B4D48FDF782FE049AD0B9BD
:1024A000D00644BF20238DF85330110744BF2B239F
:1024B0008DF8533099F800302A2B13D007994B46EA
:1024C00000204FF00A0C1A78303A092A1C464AD9E3
:1024D000A8B1079113E0C01B08FA00F01043049064
:1024E000A146D4E7039B191D1B680391002BBBBFBA
:1024F0005B4242F0020207930793B8BF049223782D
:102500002E2B0AD163782A2B32D1039B1A1D1B680C
:10251000039243EAE37302340593DFF8C090217815
:1025200003224846FDF73CFE38B1049BA0EB0900AE
:1025300040228240134301340493217824488DF8CB
:1025400028100622FDF72CFE002835D0214818BBA4
:10255000039B073323F0070308330393099B0344CA
:10256000013409936BE701330CFB01210120AAE739
:1025700000230593611C18464FF00A0C0A78303A84
:10258000092A0C4603D9002BC7D00590C5E70131B5
:102590000CFB00200123F1E703AB00932A460E4B0E
:1025A00004A93046AFF30080421CD7D1AB895B064B
:1025B0003FF532AF099831E703AB00932A46064B4B
:1025C00004A9304600F082F8EEE700BF582E00085C
:1025D000622E000800000000312300085E2E000873
:1025E0002DE9F047914698468A680B69089E934208
:1025F000B8BF1346C9F8003091F8432007460C468F
:1026000012B10133C9F800302368990642BFD9F8E6
:1026100000300233C9F80030256815F0060507D1EF
:1026200004F1190AE368D9F800209B1AAB4229DCAF
:1026300094F843302268003B18BF012392062ED441
:1026400004F1430241463846B047013021D02368A7
:10265000A168226903F00603042B01BFE568D9F8DD
:102660000030ED1A25EAE57518BF00258B1A2B44BA
:102670009142C8BF1D464FF000091A344D451AD18A
:10268000002008E00123524641463846B047013059
:1026900003D14FF0FF30BDE8F0870135C2E7E11804
:1026A0005A1C302081F84300224494F8451082F8E7
:1026B00043100233C4E70123224641463846B0475F
:1026C0000130E6D009F10109D8E700002DE9F04317
:1026D00098460B7E85B0782B174606460C9A0C461A
:1026E00009D8622B01F1430108D8002B00F0DC80EF
:1026F000582B00F0BD8004F1420539E0A3F16300DE
:102700001528F8D801A555F820F000BF6527000866
:1027100079270008F7260008F7260008F7260008A2
:10272000F726000879270008F7260008F726000892
:10273000F7260008F726000889280008A5270008C2
:1027400037280008F7260008F7260008B1280008F7
:10275000F7260008A5270008F7260008F726000836
:102760003F2800081368191D1B68116004F1420519
:1027700084F842300123A8E013682568181D106012
:10278000280601D51B6803E06A06FBD5B3F90030C3
:10279000002B03DA2D225B4284F84320DFF878C156
:1027A0000A2213E02568106815F0800F50F8043BEA
:1027B00002D16D0648BF9BB21060227EDFF858C17F
:1027C0006F2A5DD10822002084F843006568A56067
:1027D000002D05DB20681D4320F00400206051D04F
:1027E0000D46B3FBF2F002FB103E9A421CF80EE0DD
:1027F00005F801ED0346F4D9082A0BD12368DA075E
:1028000008D5236962689A42DEBF302305F8013C8F
:1028100005F1FF35491B2161CDF800803B4603AA35
:1028200021463046FFF7DCFE013053D14FF0FF3038
:1028300005B0BDE8F083236843F020032360DFF890
:10284000DCC0782384F845302068156810F0800FCC
:1028500055F8043B03D110F0400F18BF9BB2156030
:10286000C50744BF40F02000206023B11022AAE732
:10287000DFF8A4C0E6E7226822F020022260F5E734
:102880000A22A0E70D46B7E71368D4F800C06069D4
:102890001D1D15601CF0800F1B6801D0186003E03F
:1028A0001CF0400FFAD01880002323610D46B3E7D7
:1028B0001368191D11601D68626800212846FDF724
:1028C0006FFC08B1401B606063682361002384F8DB
:1028D0004330A1E723692A4639463046C0470130D4
:1028E000A4D023689B0714D4E068039B9842B8BF28
:1028F00018469DE7012304F1190239463046C047C6
:10290000013093D00135E36803995B1AAB42F1DCE7
:10291000EAE70025F7E700BF692E00087A2E0008D5
:10292000884210B501EB020402D98442234607D83D
:10293000431EA14207D011F8012B03F8012FF8E73D
:102940000244824200D110BD13F8011D02F8011D9E
:10295000F7E7000038B5064C00230546084623601B
:10296000FFF702F8431C02D1236803B12B6038BD86
:102970003C0300200A44914200F1FF3300D170472C
:1029800010B511F8014B03F8014F9142F9D110BD78
:102990002DE9F041074615460C4621B9BDE8F04146
:1029A0001146FFF73DBC2AB9FFF7CCFB2C46204669
:1029B000BDE8F08100F01AF88542064602D8B5EB72
:1029C000500FF4D829463846FFF72AFC804608B94C
:1029D0004446ECE7B5422A46214628BF3246FFF777
:1029E000C9FF21463846FFF7ADFBF1E751F8043C3B
:1029F000181F002BBCBF0B58C01870472DE9F047BB
:102A000082B00646DDF828E00846B4460D46002BA5
:102A10004ED18A4214466DD9B2FA82F242B1C2F165
:102A20002003954026FA03F394401D4306FA02FC66
:102A3000260CA7B2B5FBF6F14FEA1C4306FB115575
:102A400043EA054301FB07F0984209D9E31801F175
:102A5000FF3580F00381984240F20081023923441F
:102A60001B1A1FFA8CFCB3FBF6F006FB10334CEA82
:102A7000034C00FB07F363450AD914EB0C0C00F17F
:102A8000FF3580F0ED80634540F2EA80A4440238CF
:102A900040EA0140ACEB030C0021BEF1000F04D072
:102AA0002CFA02F30022CEE9003202B0BDE8F08732
:102AB0008B4209D9BEF1000F01D0CEE9006100219F
:102AC000084602B0BDE8F087B3FA83F11746002943
:102AD0004DD1834202D3B24200F20F81B6EB070C14
:102AE00060EB030301201D46BEF1000FDDD0CEE9EF
:102AF00000C5DAE7002A00F098801A46B4FA84F399
:102B0000002B40F0AF800B1B270CA6B20121B3FBBA
:102B1000F7F54FEA1C4007FB153340EA034306FB79
:102B200005F8984507D9E31805F1FF3002D298451A
:102B300000F2E8800546A3EB08031FFA8CFCB3FB08
:102B4000F7F007FB10334CEA034C06FB00F3634538
:102B500008D914EB0C0C00F1FF3602D2634500F2E9
:102B6000CE803046ACEB030C40EA054095E7C1F15E
:102B700020058B4022FA05FC4CEA030C00FA01F414
:102B800026FA05F3E84002FA01F943EA04084FEA9D
:102B90001C4206FA01FAB0FBF2F71FFA8CF602FBB0
:102BA00017004FEA184444EA004407FB06F0A0422D
:102BB0000AD91CEB040407F1FF3380F09C80A0428B
:102BC00040F29980023F6444241A1FFA88F3B4FB50
:102BD000F2F002FB104443EA044300FB06F69E4277
:102BE00009D91CEB030300F1FF3480F082809E4280
:102BF0007FD90238634440EA0740A0FB09749B1B5D
:102C0000A3423E46A04664D361D0BEF1000F0AD075
:102C1000BAEB060263EB080303FA05F5CA40154355
:102C2000CB40CEE9005300213FE7730843EAC1736C
:102C30004A08190C41EA02414FEAC67C9BB2B2FB3A
:102C4000F4F02646A04627461F2243EA0143B1FB83
:102C5000F4F1A3EB080341EA004158E72946FFE6F7
:102C6000284615E71A46C3F120019C4026FA01F3D5
:102C700020FA01F190400343270C06FA02FCB1FB55
:102C8000F7F0A6B207FB1015190C41EA054100FB4D
:102C900006F58D423BD9611801D28D4220D8491BDF
:102CA0000138B1FBF7F5019505FB06F8019D9BB2D4
:102CB00007FB151143EA0143434526D2E31805F10A
:102CC000FF31C6D24345C4D2A91E2344C1E7BA4549
:102CD0009BD2B7EB090664EB0C040138A04694E7DD
:102CE000651B29440238B1FBF7F5019505FB06F891
:102CF000DCE720467FE71F4666E70846F4E6A44483
:102D000002382FE7023D234415E70199A1E7491B4B
:102D1000B1FBF7F5019505FB06F8C7E7F8B500BF6D
:102D2000F8BC08BC9E467047F8B500BFF8BC08BCAC
:042D30009E46704704
:102D34002573203D2030782530386C580D0A00006A
:102D44000D0A2D2D2D2043414E31202D2D2D0D0A00
:102D54000000000020204D435200000020204D536D
:102D6400520000002020455352000000202042540D
:102D7400520000002020464D5200000020205453F1
:102D8400520000002D2D2D20656E64202D2D2D0D5B
:102D94000A0000003E3E3E206273705F63616E5F16
:102DA40063726561746528292073746172740D0AF5
:102DB4000000000020204641494C3A20436F6E66D3
:102DC400696746696C7465720D0A000020205449D5
:102DD4004D454F55542120494E414B207374696C25
:102DE4006C207365742E0D0A000000002020494EEB
:102DF400414B20636C65617265642C2043414E2015
:102E0400737461727465642E0D0A00003E3E3E20A8
:102E14006273705F63616E5F6372656174652829B4
:102E240020535543434553530D0A0D0A0000000037
:102E340030313233343536370000000000000000F2
:102E4400010203040000000000000000010203046A
:102E540006070809232D302B2000686C4C0065669A
:102E640067454647003031323334353637383941D7
:102E740042434445460030313233343536373839ED
:082E84006162636465660000F1
:082E8C0004D3FF7F01000000E8
:042E9400DD02000853
:042E9800B502000877
:102E9C0001000000100000000024F40010000020CD
:102EAC0000000000040200206C020020D40200206C
:102EBC000000000000000000000000000000000006
:102ECC0000000000000000000000000000000000F6
:102EDC0000000000000000000000000000000000E6
:0C2EEC00000000000000000000000000DA
:04000005080020458A
:00000001FF
